:020000040800F2
:10000000E835002015020008850D0008FD0A0008EB
:10001000E10B000845080008935D0008000000009F
:10002000000000000000000000000000A9570008C8
:10003000ED08000800000000D3070008BD580008C4
:100040002F0200082F0200082F0200081D5600088A
:100050002F0200082F0200082F0200082F020008BC
:100060002F0200082F0200082F0200082F020008AC
:100070002F0200082F0200082F0200082F0200089C
:100080002F0200082F0200082F0200082F0200088C
:100090002F0200082F0200082F0200082F0200087C
:1000A0002F0200082F0200082F0200082F0200086C
:1000B0003959000859590008795900082F020008D9
:1000C0002F0200082F0200082F0200082F0200084C
:1000D0002F020008C95A0008055B0008395B0008B8
:1000E0002F0200082F0200082F0200082F0200082C
:1000F0002F0200082F0200082F0200082F0200081C
:100100002F0200082F020008AD5900082F02000836
:100110002F0200082F0200082F0200082F020008FB
:100120002F0200082F0200082F0200082F020008EB
:1001300000F002F800F05FF80AA090E8000C82449A
:100140008344AAF10107DA4501D100F054F8AFF277
:10015000090EBAE80F0013F0010F18BFFB1A43F0A5
:1001600001031847088D0000288D00000A444FF055
:10017000000C10F8013B13F0070408BF10F8014B06
:100180001D1108BF10F8015B641E05D010F8016B4B
:10019000641E01F8016BF9D113F0080F1EBF10F8AF
:1001A000014BAD1C0C1B09D16D1E58BF01F801CBD2
:1001B000FAD505E014F8016B01F8016B6D1EF9D555
:1001C0009142D6D37047000000230024002500266A
:1001D000103A28BF78C1FBD8520728BF30C148BFAA
:1001E0000B607047642900F08580002070471FB5C0
:1001F0001FBD10B510BD00F0A1FA1146FFF7F7FFC3
:1002000008F03EF800F0BFFA03B4FFF7F2FF03BCBA
:1002100005F01FFE0948804709480047FEE7FEE752
:10022000FEE7FEE7FEE7FEE7FEE7FEE7FEE7FEE7A6
:1002300004480549054A064B70470000D958000894
:1002400031010008E82F0020E8350020E8310020C7
:10025000E831002072B6704762B67047EFF3108045
:1002600072B6704780F31088704730BF704720BF68
:100270007047B0FA80F0704790FAA0F0B0FA80F0C2
:10028000704790FAA0F07047704700000FB404491F
:1002900010B503AA029800F0FBF910BC5DF814FB3E
:1002A000D000002070B5044685690068C10601D5FC
:1002B000302600E02026C00707D070BDD4E9012118
:1002C00030469047206A401C20626D1EF6D570BDF6
:1002D00070B5044685690078C00707D170BDD4E9C0
:1002E000012120209047206A401C20626D1EF6D517
:1002F00070BD00002DE9F041064600241068752904
:10030000314616A510D0AFF30080002802DA404233
:1003100013A507E031688A0701D512A502E0490755
:1003200004D511A5012401E0AFF3008000210A22C9
:1003300006F1240709E0B0FBF2FCB0FBF2F302FB8C
:100340001C00303078541846491C0028F3D123464D
:100350002A463046BDE8F04100F041B900000000F7
:100360002D0000002B000000200000002DE9F05FB0
:10037000894604464FF0000ADFF824B1FB44C0F878
:1003800020A02046E168884700287DD0252806D097
:10039000D4E901219047206A401C2062F1E7002542
:1003A0005F462046E16888472028064607DB312E55
:1003B00005D2B81910F8200C08B10543F1E7A807D9
:1003C00001D525F00405C4F81CA00027C4F818A026
:1003D0002A2E09D0304605F035FD38B304EB8708E6
:1003E000303EC8F8186019E059F8041B204604EBA9
:1003F00087029161E1688847012F064618D1E069BC
:10040000002820DA25F020051DE0D8F8180000EBC0
:10041000800006EB40003038C8F818002046E1683C
:100420008847064605F00EFD0028EED1012F0AD0C0
:100430002E2E08D12046E16888477F1C0646022FF1
:1004400045F02005C4DBA069002803DA404245F0EE
:100450000105A061E80701D025F01005A6B1A6F1BD
:100460004100192802D8203645F400654A46314635
:10047000204625604D46FFF7B5FE60B1012807D044
:10048000ED1D25F0070000E007E000F1080978E71E
:1004900005F1040975E730467AE7206ABDE8F09F68
:1004A000948A0000032A40F2308010F0030C00F020
:1004B000158011F8013BBCF1020F624498BF11F89E
:1004C00001CB00F8013B38BF11F8013BA2F1040257
:1004D00098BF00F801CB38BF00F8013B11F00303CF
:1004E00000F02580083AC0F0088051F8043B083A33
:1004F00051F804CBA0E80810F5E7121D5CBF51F8D5
:10050000043B40F8043BAFF30080D20724BF11F84E
:10051000013B11F801CB48BF11F8012B24BF00F8B3
:10052000013B00F801CB48BF00F8012B704710B524
:10053000203AC0F00B80B1E81850203AA0E81850DB
:10054000B1E81850A0E81850BFF4F5AF5FEA027C9C
:1005500024BFB1E81850A0E8185044BF18C918C00B
:10056000BDE810405FEA827C24BF51F8043B40F8AC
:10057000043B08BF7047D20728BF31F8023B48BF91
:1005800011F8012B28BF20F8023B48BF00F8012BCF
:1005900070474FF000020429C0F0128010F0030CE5
:1005A00000F08A80CCF1040CBCF1020F18BF00F8F7
:1005B000012BA8BF20F8022BA1EB0C0100F07CB8A6
:1005C0005FEAC17C24BF00F8012B00F8012B48BF73
:1005D00000F8012B704770477047704770472DE94E
:1005E000F0470D4699469246044600F124080168FA
:1005F000880604D5E06921F01001216000E00120A7
:10060000A84201DD471B00E00027A1697A1902EB2F
:100610000900081AA0612078C00602D42046FFF71E
:1006200041FE002608E0D4E901211AF806009047AF
:10063000206A401C761C20624E45F4DB2078C00600
:100640000AD52046FFF72EFE06E0D4E9012130202E
:100650009047206A401C2062381EA7F10107F4DC95
:1006600007E0D4E9012118F805009047206A401CF2
:100670002062281EA5F10105F3DC2046FFF728FEC5
:100680002078000602D50220BDE8F0870120FBE7B4
:10069000074B70B50D467B4400F039F804462846F8
:1006A00000F048F810B14FF0FF3070BD204670BD2B
:1006B000FF5800004FF0000200B5134694469646DE
:1006C000203922BFA0E80C50A0E80C50B1F1200165
:1006D000BFF4F7AF090728BFA0E80C5048BF0CC013
:1006E0005DF804EB890028BF40F8042B08BF704771
:1006F00048BF20F8022B11F0804F18BF00F8012BE3
:100700007047000001694A1C02610878704700B513
:100710008FB0CDE901310021059105497944CDE93A
:10072000031011466846FFF721FE0FB000BD000020
:10073000E5FFFFFF007B00F080007047754600F08A
:1007400029F8AE4605006946534620F00700854665
:1007500018B020B5FFF76CFDBDE820404FF0000653
:100760004FF000074FF000084FF0000B21F0070199
:10077000AC46ACE8C009ACE8C009ACE8C009ACE8DC
:10078000C0098D4670470446AFF300802046FFF74E
:100790003BFD000000487047882F00201D484FF6A1
:1007A000FF710170002080F309881B48016881F304
:1007B00008881A484FF08051016062B6FEE717487A
:1007C0004FF080510160704714484FF08051016034
:1007D000704772B6EFF3098028B1203880E8F00F37
:1007E0000F490968086000B50E4880475DF804EBC2
:1007F0000D480E490A78027009480D490A680260DE
:10080000106890E8F00F203080F309884EF0040E55
:1008100062B6704722ED00E0B401002004ED00E074
:10082000AC010020C12200083A0100203B01002059
:10083000B001002000B585B0684604F06BFE019859
:1008400005B000BD00BFFEE710B500F01FF800F0D6
:1008500019F810BD10B5002400BF00BFFFF7FEFC63
:10086000044600BF00BF1021054800F0BBF900BFDF
:1008700000BF2046FFF7F6FC00BF00BF10BD000020
:100880000814002010B5FFF7E5FF10BD10B50020DB
:100890000249086000F00AF810BD0000E0000020E6
:1008A0000149086070470000E000002010B5FFF724
:1008B000C1FF04460848006840F08070064908609F
:1008C0000020064948600846006840F001000860C2
:1008D0002046FFF7E5FF10BDFCED00E0001000E052
:1008E0000149486870470000001000E070472DE99A
:1008F000F0410246002500260020002300240027A6
:1009000091F803C00CF00F0591F803C00CF0100C27
:10091000BCF1000F03D091F802C04CEA050591F834
:1009200000C0BCF1000F31D0146800202BE04FF064
:10093000010C0CFA00F3B1F800C00CEA03069E4269
:1009400020D183004FF00F0C0CFA03F7BC4305FADB
:1009500003FC4CEA040491F803C0BCF1280F06D153
:100960004FF0010C0CFA00FCC2F814C00AE091F838
:1009700003C0BCF1480F05D14FF0010C0CFA00FC8C
:10098000C2F810C0401C0828D1D31460B1F800C0D0
:10099000BCF1FF0F34DD546800202EE000F1080C9C
:1009A0004FF0010808FA0CF3B1F800C00CEA030696
:1009B0009E4221D183004FF00F0C0CFA03F7BC4389
:1009C00005FA03FC4CEA040491F803C0BCF1280FBB
:1009D00005D100F1080C08FA0CF8C2F8148091F85F
:1009E00003C0BCF1480F07D100F1080C4FF001081B
:1009F00008FA0CF8C2F81080401C0828CED35460C6
:100A0000BDE8F081F0B50A4600230024002100254E
:100A100000F00046B6F1004F02D11D4EF16901E031
:100A20001B4E7168C0F3034583B200F44016B6F55F
:100A3000401F08D121F07061154E766826F070666F
:100A4000134F7E6012E000F48016B6F5801F06D1C9
:100A5000032606FA05F4A14341F0706106E0460D55
:100A6000360103FA06F6B14341F0706122B1460D3A
:100A7000360103FA06F6314300F00046B6F1004FA6
:100A800002D1034EF16101E0014E7160F0BD000042
:100A9000000001400246002093680B400BB101208A
:100AA00000E000207047416170470161704700001D
:100AB0000EB500BF1CE002A800F084FD4FF40061F9
:100AC0000C48FFF7E7FF08B1012000E000200A49C9
:100AD0000873084607F02AF802A800F0DFFD02A814
:100AE000002164230A46CDE90010084601F0B8FC55
:100AF000E1E7000000080140B801002000BFFEE768
:100B000008B50121042004F0F5FC0121084604F099
:100B1000F1FC01210848FFF775FF4FF4C050ADF814
:100B2000000048208DF8030003208DF8020069467C
:100B30000248FFF7DCFE08BD00023000000801405B
:100B400008B50121082004F0D5FC0121084604F075
:100B5000D1FC01210B48FFF755FF4FF44040ADF8A1
:100B6000000010208DF8030003208DF80200694674
:100B70000548FFF7BCFE4FF440410348FFF795FFDF
:100B800008BD000000023000000C014070B50446B2
:100B90000D4685B114B1012C0CD105E04FF4804114
:100BA0000E48FFF782FF05E04FF400410B48FFF7C6
:100BB0007CFF00BF10E014B1012C0CD105E04FF414
:100BC00080410648FFF76FFF05E04FF400410348FE
:100BD000FFF769FF00BF00BF70BD0000000C0140BF
:100BE00000BFFEE730B505460C46224600212846E8
:100BF00000F001F830BD2DE9F04105460B46944662
:100C00000027002402E03F021F43641C042CFAD397
:100C1000604605F00306294646B1344603E001F874
:100C2000013B401E641C08B1042CF8D30A4601E0C5
:100C300080C2001F0428FBD2114602E001F8013BEC
:100C4000401E0028FAD1BDE8F081000008B5102050
:100C50008DF803004FF47070ADF8000003208DF89C
:100C6000020069460148FFF742FE08BD000C014042
:100C70000EB500BF78E000203C49887108468078B6
:100C8000012823D0022837D0032802D0042843D1DA
:100C900010E03748007838B940213648FFF705FFA3
:100CA00080213448FFF7FFFE31480078401C30496E
:100CB000087032E080212F48FFF7F7FE40212D48D1
:100CC000FFF7F1FE00202A49087026E02A48007844
:100CD00060B94FF480712748FFF7E7FE4FF40071C9
:100CE0002448FFF7E0FE01202449087022480078DC
:100CF000401C2149087010E04FF400711D48FFF7B7
:100D0000D4FE4FF480711B48FFF7CDFE00201B4935
:100D100008701949087000E000BF00BF13488088C0
:100D20004FF47A7190FBF1F201FB12040F488088B6
:100D300090FBF1F085B202A8002123462A46CDE9B6
:100D40000010084601F08CFB00200849087048702C
:100D50004FF470710748FFF7A6FE01200349887120
:100D600002A9074801F07CFA85E700005C0000203A
:100D700076000020000C014075000020B801002022
:100D8000C0040020704700001CB511A103C9CDE9C3
:100D90000001102004F0BCFC05226946302000F060
:100DA00005F905226946102000F0AEF8002406E09F
:100DB0001DF80400A52800D003E0601CC4B2052C77
:100DC000F6DB00BF052C01D001201CBD0020FCE794
:100DD000A5A5A5A5A500000000B587B001210C20A0
:100DE00004F088FB0220ADF8180010208DF81B00DD
:100DF00003208DF81A0006A92848FFF778FD4FF464
:100E00008050ADF8180010208DF81B0003208DF8DD
:100E10001A0006A92148FFF76AFD02211F48FFF7C3
:100E200044FE4FF480511E48FFF73FFE0120ADF80D
:100E3000180028208DF81B0006A91848FFF757FD59
:100E400004F0F6FB0021174804F076FC0020ADF812
:100E500004004FF48270ADF806000020ADF80800E1
:100E6000ADF80A00ADF80C004FF40070ADF80E00BC
:100E70003820ADF810000020ADF812000720ADF8C2
:100E8000140001A9074804F071FC0020064908601D
:100E900001200649C1F8B00107B000BD000C0140B7
:100EA000000801400030014084812142008021423D
:100EB00010B5002011490860052211492A2000F0D0
:100EC00075F80121212000F08FF80121222000F087
:100ED0008BF82821252000F087F82021312000F010
:100EE00083F80F21262000F07FF80F21202000F04A
:100EF0007BF801200349C1F8840110BD848121429F
:100F0000FD8B0008008021422DE9F04107460D4687
:100F1000164600200A490860384604F0CFFB804698
:100F2000002405E0FF2004F0C9FB2855601CC4B272
:100F3000B442F7DB0120024908604046BDE8F08179
:100F4000B081214270B50446002007490860204660
:100F500004F0B4FBFF2004F0B1FB05460120034977
:100F6000C1F8B001284670BDB08121420080214205
:100F700070B50446102004F0CBFB0720FFF7E2FF1A
:100F800005462946272000F02FF805F0400050B113
:100F9000202221466120FFF7B7FFFF21E22000F069
:100FA00023F8002070BD0120FCE700002DE9F0418E
:100FB00007460C46154600200A490860384604F0EA
:100FC0007DFB8046002605E014F8010B04F076FB5B
:100FD000701CC6B2AE42F7DB0120024908604046F1
:100FE000BDE8F081B081214270B505460C46002075
:100FF00007490860284604F061FB0646204604F0D5
:101000005DFB01200349C1F8B001304670BD00000E
:10101000B0812142008021420EB50024002500BF8E
:1010200049E002A800F0CEFAFFF742FF2248FFF79E
:101030009FFF002832D120480078FE282ED11E487C
:101040004078112813D101201C4908700021FFF7B6
:101050009DFD1B48007850B901201949887008701F
:1010600041F6DC60888002A9164800F0DBFE1248D9
:101070008478C07840EA04240F480579407940EA32
:1010800005250E488460C0F81550002004E00021BA
:10109000094A1154411CC8B20628F8DB02A800F026
:1010A000FDFA02A800214FF4FA730A46CDE90010B8
:1010B000084601F0D5F9B4E7A80F0020B8010020D8
:1010C0005C000020C004002070B5002100230F2226
:1010D000C47804B3154C246804F4E064C4F5E064F7
:1010E000210AC1F10403CA40447804FA03F1847868
:1010F0001440214309010E4C0678A155047804F0F0
:101100001F050124AC4005786D11AD0005F1E02507
:10111000C5F8004109E0047804F01F050124AC4043
:10112000044D0678761145F8264070BD0CED00E0C0
:1011300000E400E080E100E0154816481648174832
:10114000174818481848194819481A481A481B4897
:101150001B481C481C481D481D481E481E481F4867
:101160001F48204820482148214822482248234837
:101170002348244824482548254826482648274807
:101180002748284828482948294800BF70470000B8
:10119000A48C0008048C0008088C00080C8C000843
:1011A000108C0008148C0008188C00081C8C000897
:1011B000208C0008248C0008288C00082C8C000847
:1011C000308C0008348C0008388C00083C8C0008F7
:1011D000408C0008448C0008488C00084C8C0008A7
:1011E000508C0008548C0008588C00085C8C000857
:1011F000608C0008648C0008688C00086C8C000807
:10120000708C0008748C0008788C00087C8C0008B6
:10121000808C0008848C0008888C00088C8C000866
:10122000908C0008948C0008988C00089C8C000816
:10123000A08C000810B50348006810B10148006890
:10124000804710BDF800002070B5044600F0C2F8D9
:1012500000204849087048490870484908704849C2
:10126000086048490860484908704849087048497A
:10127000087048490860484908604849086048497A
:101280000870484800680A21B0FBF1F04649086040
:101290004648006858B14648056845B14348066865
:1012A00003E0761E002028602D1D002EF9D10020BD
:1012B000404908604049086040490860404908606A
:1012C000404908604049086040490860404908704A
:1012D00002F008FA02F0E8FA204601F097FB2088B5
:1012E00000B170BD204601F079FF208800B1F8E719
:1012F000204601F09BFF208800B1F2E7204602F073
:1013000067F8208800B1ECE7204602F01BFA20883D
:1013100000B1E6E7204602F03FFC208800B1E0E79C
:10132000204602F061FF208800B1DAE7204601F094
:10133000C1FE208800B1D4E7204601F0D9FC208806
:1013400000B1CEE7204603F0BFFE208800B1C8E719
:10135000204602F08DFE208800B1C2E7204603F04F
:1013600023FF208800B1BCE701F078FAFFF7E4FE24
:1013700000BFB6E70C0100200D0100205401002041
:10138000AC010020B00100203A0100203B01002008
:101390003C010020480100204C01002050010020A9
:1013A0005C010020648C000858010020348C000887
:1013B000308C0008EC000020F0000020F400002039
:1013C000F8000020FC0000200001002004010020A3
:1013D0008A0100200A4A1168002002E0002204C1AC
:1013E000401C084A12689042F8D3054A1268054B1F
:1013F0001B6802EB8302121F034B1A607047000048
:10140000308C0008348C0008B401002008480078B3
:10141000012800D0704707480078FA2800DBF9E778
:1014200004480078401C0349087000BFF2E7000040
:101430000D0100200C01002010B500242E4800787A
:10144000012800D010BD00BFFEF708FF044600BF12
:101450002A48007828B900BF2046FEF703FF00BFE6
:10146000F0E726480078401E2449087008460078B6
:10147000002805DD00BF2046FEF7F4FE00BFE1E7CF
:101480001F480078002805DD00BF2046FEF7EAFE71
:1014900000BFD7E702F012F91A4908700846007831
:1014A00000EB4000184951F8200018490860084630
:1014B000006817490968884205D100BF2046FEF739
:1014C000D1FE00BFBEE711480068D0F89000401C74
:1014D0000E490968C1F890000E480068401C0D498B
:1014E00008604FF080500C49086000BF2046FEF7AE
:1014F000B9FE00BF00BFA5E70D0100200C010020D0
:10150000540100203B0100203C2A0020B0010020B3
:10151000AC0100208001002004ED00E010B50024A3
:1015200020480078002800DD10BD1F480078002802
:1015300000DDF9E700BFFEF791FE044600BF02F0B0
:10154000BDF81A4908700846007800EB40001849B9
:1015500051F82000174908600846006816490968D4
:10156000884205D100BF2046FEF77CFE00BFDBE7C6
:1015700010480068D0F89000401C0E490968C1F876
:1015800090000E480068401C0C4908604FF08050E5
:101590000B49086000BF2046FEF764FE00BF00BF95
:1015A000C2E700000C010020540100203B01002094
:1015B0003C2A0020B0010020AC0100208001002066
:1015C00004ED00E070B504460025184800780028B6
:1015D00003DD46F66250208070BD15480078012872
:1015E00003D045F689602080F6E712480078FA2893
:1015F00003DB45F209202080EEE700BF00BFFEF7C5
:101600002DFE054600BF00BF0A480078401C09496E
:10161000087002F02DFA00BF00BF2846FEF722FE38
:1016200000BF00BF0020208000BFD5E70C010020D4
:101630000D010020540100202DE9F04105460C4623
:101640001646002700BF00BFFEF708FE074600BF92
:1016500000BF012D03D000200D49087002E00120D9
:101660000B49087014B10B48046006E00A48006892
:101670000A21B0FBF1F00749086000BF00BF3846FF
:10168000FEF7F0FD00BF00BF00203080BDE8F08114
:101690005C01002058010020648C000870B50446ED
:1016A000002520480078002803DD46F6655020809C
:1016B00070BD1D480078012803D045F68960208060
:1016C000F6E71A48007818B946F664502080EFE72C
:1016D00000BF00BFFEF7C2FD054600BF00BF1348B4
:1016E0000078401E114908700846007800280ADD7D
:1016F00000BF00BF2846FEF7B5FD00BF00BF46F69D
:1017000063502080D4E702F0C1F900BF00BF284633
:10171000FEF7A8FD00BF00BFFFF700FF00202080FC
:1017200000BFC5E70C0100200D010020540100207E
:1017300010B5044612480078E8B901F0BFFF11491E
:10174000087008460078104908700E48007800EBD1
:1017500040000E4951F820000D4908600846006815
:101760000C490860012006490870FFF717F843F696
:101770009920208002E045F68A60208010BD00009C
:101780000D0100203B0100203A0100203C2A0020EE
:10179000B0010020AC0100202DE9F04107464FF0D8
:1017A000000800BF00BFFEF759FD804600BF00BF24
:1017B00000203D4908603D4908803D4908803D4979
:1017C00008603D4908603D4908603D4908603D4961
:1017D000088100BF00BF4046FEF744FD00BF00BFC8
:1017E00000BF00BFFEF73AFD804600BF00BF36488D
:1017F000046800BF00BF4046FEF734FD00BF00BFD5
:1018000021E000BF00BFFEF729FD804600BF00BFFA
:1018100000207834E06320602063A061A082E08231
:101820006062A062FFF75CF82062783C04F1640615
:101830000020B081D4F8BC4000BF00BF4046FEF796
:1018400011FD00BF00BF002CDBD100BF00BFFEF7C1
:1018500005FD804600BF00BF1C48056800BF00BFF3
:101860004046FEF7FFFC00BF00BF12E000BF00BF14
:10187000FEF7F4FC804600BF00BF05F12006002003
:10188000B081AD6900BF00BF4046FEF7EBFC00BF72
:1018900000BF002DEAD103F0F3FA03F081FD002030
:1018A0003880BDE8F0810000200100201A010020EE
:1018B0006A0100207C010020900100209C01002092
:1018C0004C010020302A002084010020400100202B
:1018D000F8B5044600266946324800F0C1FCBDF860
:1018E000000018B1BDF800002080F8BD6A46002154
:1018F000022000F029FDBDF8000018B1BDF800007D
:101900002080F2E700BF00BFFEF7A8FC064600BF3C
:1019100000BF00202449086000BF00BF3046FEF72A
:10192000A1FC00BF00BF00252048006820490968CD
:10193000884205D91D4800681D490968B0FBF1F5CA
:1019400025B91A4800680A21B0FBF1F56A46002162
:10195000284600F0F9FC6946124800F063FABDF829
:10196000000018B1BDF800002080BEE700BF00BF36
:10197000FEF774FC064600BF00BF00200D4908605A
:10198000094800680C49086001200C49087000BF34
:1019900000BF3046FEF766FC00BF00BF002020807D
:1019A00000BFA2E7C42E00206C010020648C000858
:1019B0004C8C00087C010020700100207801002080
:1019C00010B50348006810B101480068804710BD99
:1019D000FC0000202DE9FF4F87B004469046DDE96A
:1019E0001BA5DDE91496179F002003908748007817
:1019F000002805DD47F24A1028800BB0BDE8F08FC3
:101A00001CB947F2AD102880F7E7B8F1000F03D1F9
:101A100047F24F102880F0E71EB946F62F60288065
:101A2000EBE77B480068874203D246F630602880A7
:101A3000E3E71698B84203D346F631602880DCE726
:101A4000B9F1400F03D346F273202880D5E7B9F1EE
:101A5000000F06D16F48844203D046F273202880DD
:101A6000CBE7B9F13F0F06D16B48844203D046F271
:101A700073202880C1E7204602F0C6FB00202880A2
:101A80000AF0010090B10AF0020078B1059600203A
:101A9000069008E00021059801600598001D05905A
:101AA0000698401C06900698B842F3D3169806EBA9
:101AB00080000490CDE9007A32464046049B0A99A2
:101AC00000F06EFB0590C4F828800A98E062089840
:101AD000206284F83790059820600498A0601998D7
:101AE0006065199818B94D480068A06501E019981B
:101AF000A0651A9860606662A763A4F83CA04FF0E6
:101B0000000B08E0002104F17C0040F82B100BF1E1
:101B1000010000F0FF0BBBF1000FF3D004F16400F3
:101B2000189901F0CFFB204600F082F800BF00BFFB
:101B300000BFFEF793FB039000BF00BF384800785A
:101B4000401C3749087000BF00BF0398FEF78AFBAE
:101B500000BF00BF00BF94F8370001F0CFFD204662
:101B600001F0EAFE204602F005FB2E480088401CEA
:101B70002C4908802C48007801282DD000BF00BFD8
:101B800000BFFEF76BFB039000BF00BF2448007846
:101B9000401E2349087008460078A0B923480088F1
:101BA000002809DD00BF00BF0398FEF75BFB00BF04
:101BB00000BF01F02FFF0DE000BF00BF0398FEF74C
:101BC00051FB00BF06E000BF00BF0398FEF74AFBD1
:101BD00000BF00BF00BF10E700BF00BF00BFFEF79F
:101BE0003DFB039000BF00BF0D480078401E0C492C
:101BF000087000BF00BF0398FEF734FB00BF00BFB2
:101C000000BFFFF78BFC00BFF7E600000C010020CF
:101C1000608C00086C290020A828002058010020B2
:101C200054010020880100200D010020180100202F
:101C300010B504460348006818B1204601490968F8
:101C4000884710BDEC00002070B504460D46002604
:101C500067480078002803DD47F24E10288070BDE9
:101C60006448844203D147F24C102880F7E7624869
:101C7000844203D147F24D102880F0E77CB900BFC1
:101C800000BFFEF7EBFA064600BF00BF5B480468E2
:101C900000BF00BF3046FEF7E5FA00BF00BF00BF3F
:101CA00000BF00BFFEF7DAFA064600BF00BF544887
:101CB0000078401C5249087000BF00BF3046FEF754
:101CC000D1FA00BF00BF00BF94F8360008282DD21B
:101CD000DFE800F004090E10080A0F11204601F099
:101CE0006BFE54E053E000BF204603F0ADF84EE039
:101CF00000BF00BF00BF204603F0A6F894F83400F0
:101D0000082810D2DFE800F004070508090A0B06CE
:101D100000BF00BF08E000BF00BF00BF00BF2046FB
:101D200001F01DFC00E000BF00BF30E000BF00BFBD
:101D300000BFFEF793FA064600BF00BF30480078A8
:101D4000401E2F49087008460078A0B92D48008829
:101D5000002809DD00BF00BF3046FEF783FA00BF50
:101D600000BF01F057FE0DE000BF00BF3046FEF798
:101D700079FA00BF06E000BF00BF3046FEF772FAF6
:101D800000BF00BF00BF46F62D60288067E700BF98
:101D900004F1640001F074FA204600F037F82046A0
:101DA00002F000FA18480088401E174908802046B3
:101DB00002F02AFAFF2084F8360000BF00BF00BFFF
:101DC000FEF74CFA064600BF00BF0D480078401EE3
:101DD0000B49087000BF00BF3046FEF743FA00BF52
:101DE00000BF00BF00202880FFF798FB00BF36E748
:101DF0000C010020A82800206C290020AC01002044
:101E000054010020180100208801002010B504466C
:101E10000348006818B1204601490968884710BD89
:101E2000F00000207FB504460D46002600BF00BF2D
:101E3000FEF714FA064600BF00BF1CB11548006843
:101E400084420AD100BF00BF3046FEF70BFA00BF44
:101E500000BF47F2571028807FBD00BF00BF30464B
:101E6000FEF700FA00BF00BF0B48007800280BDD2A
:101E7000002000900190034602462146CDE902056C
:101E8000064800F06DFFE7E72946204602F034FBE4
:101E900000BFE1E7AC0100200C0100205452455383
:101EA00010B504460348006818B120460149096886
:101EB000884710BDF40000202DE9F04780460E460B
:101EC00014461D464FF000097D480078002805DDC6
:101ED00046F2AE1028800020BDE8F0871EB1B6F5AE
:101EE000004F02D100E000BF04E045F625602880E5
:101EF0000020F1E700BF0CB10020206000BF00BF50
:101F0000FEF7ACF9814600BF00BF6E480068406C28
:101F1000A8B36C480068406C401E6A490968486470
:101F200068480068476C1CB166480068006C206017
:101F3000FEF7D6FC63490968096C401A61490968D3
:101F4000C1F8A4005F480068D0F8A8005D4909689E
:101F5000D1F8A410884207D25A480068D0F8A400EB
:101F600058490968C1F8A80000BF00BF4846FEF7FD
:101F700079F900BF00BF002028803846ACE7FFE7B2
:101F800006F4004058B100BF00BF4846FEF76AF9AA
:101F900000BF00BF46F2B010288000209CE74A48EE
:101FA000007800280BDD00BF00BF4846FEF75AF955
:101FB00000BF00BF46F66350288000208CE700BFBA
:101FC00041480078401C4049087000BF00BF4846A7
:101FD000FEF748F900BF00BF00BF434607220021BB
:101FE000084601F001FA00BF00BF00BFFEF736F956
:101FF000814600BF00BF34480078401E3249087057
:1020000000BF00BF4846FEF72DF900BF00BF00BF6C
:10201000FFF784FA00BF00BFFEF720F9814600BF3A
:1020200000BF2848006890F8350020B1012826D06C
:10203000032834D12CE0FCB122480068006C2060F9
:10204000FEF74EFC1F490968096C401A1D490968D2
:10205000C1F8A4001B480068D0F8A8001949096815
:10206000D1F8A410884207D216480068D0F8A4001E
:1020700014490968C1F8A8000020288013E01CB1A9
:1020800010480068006C206046F2A91028800AE021
:102090000CB10020206047F2D920288003E046F6EA
:1020A0002E60288000BF00BF06480068476C00BF54
:1020B00000BF4846FEF7D6F800BF00BF38460BE722
:1020C0000C010020AC010020540100202DE9F04754
:1020D00005460E4617461C464FF0000A2E4800786B
:1020E000002804DD47F259102080BDE8F0871EB9B2
:1020F00046F2D5202080F8E71FB946F2D52020808F
:10210000F3E700BF00BFFEF7A9F8824600BF00BF9B
:102110000DB922480568286868B900BF00BF50465D
:10212000FEF7A0F800BF00BF00203060386047F223
:1021300052102080D9E795F83C0000F0010068B902
:1021400000BF00BF5046FEF78DF800BF00BF002063
:102150003060386047F254102080C6E700BF00BFEF
:102160005046FEF77FF800BF00BF4FF00008D5F8DB
:10217000249003E009F1040908F10108D9F80000EE
:102180000028F7D0C6F80080A86BA0EB08003860E4
:102190000020208000BFA8E70C010020AC01002037
:1021A000F0B50446DDE9055602EB85004FF0807C72
:1021B000071F3846C7F800C0071F38463C60DFF8E5
:1021C0009CC0071F3846C7F800C04FF0123C071FDD
:1021D0003846C7F800C04FF0033C071F3846C7F821
:1021E00000C04FF0023C071F3846C7F800C0071F69
:1021F00038463B60071F384639604FF0113C071FD7
:102200003846C7F800C04FF0103C071F3846C7F8E3
:1022100000C04FF0093C071F3846C7F800C04FF018
:10222000083C071F3846C7F800C04FF0073C071F9F
:102230003846C7F800C04FF0063C071F3846C7F8BD
:1022400000C04FF0053C071F3846C7F800C04FF0EC
:10225000043C071F3846C7F800C0F0BD39460008E7
:102260007FB505460C461248854203D147F25B1004
:1022700020807FBD0F48854203D147F25C1020804B
:10228000F7E70D48007800280BDD00200090019052
:10229000034602462946CDE90204084800F060FDE5
:1022A000E7E72146284602F035FC00BFE1E70000E1
:1022B000A82800206C2900200C01002054535553FD
:1022C00010B51D48006810B11B4800688047FEF734
:1022D00007FB04461948006819490968884215D067
:1022E00016480068D0F89800201A14490968C1F807
:1022F000940012480068D0F89C0010490968D1F891
:10230000941008440D490968C1F89C000C48006805
:10231000C0F8984009480068D0F8B4000949096835
:10232000884205D20748006804490968C1F8B4002A
:1023300000200449086010BD00010020AC0100200D
:10234000B0010020500100202DE9F04105460E4665
:10235000144600273F480078002804DD47F2752026
:102360002080BDE8F0813C480078002803DD46F677
:1023700063502080F5E736B1022E05D0042E0AD036
:10238000082E09D101E000BF00BF1DB947F27E2031
:102390002080E6E704E003E045F625602080E0E7E2
:1023A00000BF00BF00BF00BFFDF758FF074600BFDA
:1023B00000BF29480078401C2749087000BF00BFB3
:1023C0003846FDF74FFF00BF00BF00BF0120234983
:1023D000096881F836002346324629461F480068BE
:1023E00002F054FC2088A8B100BF00BF00BFFDF779
:1023F00035FF074600BF00BF17480078401E16494A
:10240000087000BF00BF3846FDF72CFF00BF00BFBB
:1024100000BFA6E71148006801F0CEFA00BF00BF78
:1024200000BFFDF71BFF074600BF00BF0A4800784A
:10243000401E0949087000BF00BF3846FDF712FF73
:1024400000BF00BF00BFFFF769F80020208000BF79
:1024500087E700000C01002054010020AC0100209F
:102460002DE9FF5F05460E4617469846DDE90EA4A6
:102470000020009072480078002804DD47F27520A3
:102480002080BDE8FF9F6F480078002803DD46F6F6
:1024900063502080F5E70AF00E0BBBF1000F09D066
:1024A000BBF1020F07D0BBF1040F10D0BBF1080F36
:1024B0000ED101E000BF00BFB8F1000F06D12FB967
:1024C00026B91DB947F27E202080DAE704E003E058
:1024D00045F625602080D4E700BF2AF01E0008B131
:1024E000012000E0002003900398012803D145F665
:1024F00025602080C5E7CAF3001002900298C0B999
:10250000B8F57A7F03D347F27B202080B9E73B2FD1
:1025100003DD47F27A202080B3E73B2E03DD47F24C
:1025200079202080ADE7632D12DD47F278202080EE
:10253000A7E742F20F70864203DD47F27920208040
:102540009FE7B5F57A7F03DB47F27820208098E794
:102550003D48D0F800904FF4FA70B0FBF9F04044D9
:1025600000FB09F04FF47A71B0FBF1F14FF46160B8
:102570006843C6EB061200EB8200384400FB0910EA
:1025800001900198002856D000BF00BF00BFFDF7A2
:1025900065FE009000BF00BF2A480078401C294912
:1025A000087000BF00BF0098FDF75CFE00BF00BFD1
:1025B00000BF01202549096881F8360023465A46A4
:1025C00022480199006802F061FB2088A8B100BF91
:1025D00000BF00BFFDF742FE009000BF00BF1948DA
:1025E0000078401E1749087000BF00BF0098FDF733
:1025F00039FE00BF00BF00BF43E71448006801F088
:10260000DBF900BF00BF00BFFDF728FE009000BF50
:1026100000BF0C480078401E0A49087000BF00BF88
:102620000098FDF71FFE00BF00BF00BFFEF776FF5A
:102630000020208002E047F27E20208000BF20E7BB
:102640000C01002054010020648C0008AC01002023
:1026500010B586B000F01EF8FEF742F9044605A852
:1026600000210091CDE9011403900748007800EBA8
:102670004000064A02EB800100231A46044800F09D
:102680006FFB06B010BD00003A0100203C2A00207C
:102690005449434B10B50348006810B10148006825
:1026A000804710BD040100202DE9F84F04468846FC
:1026B00016461F46DDE90BABDDF828900D9D002086
:1026C000009037480078002804DD47F24330288026
:1026D000BDE8F88F1CB945F6C3502880F8E7B9F17A
:1026E000010F08D0B9F1020F0BD11FB947F24030EA
:1026F0002880EDE709E01EB947F23F302880E7E780
:1027000003E045F625602880E2E700BF00BF00BF78
:1027100000BFFDF7A3FD009000BF00BF2148007877
:10272000401C2049087000BF00BF0098FDF79AFDCB
:1027300000BF00BF00BF012084F82A001A482060B3
:10274000C4F8048026620020A061E0616762A4F8FA
:102750002890C4F808A0C4F80CB02061606120463D
:1027600002F00EFD11480088401C1049088000BF8F
:1027700000BF00BFFDF772FD009000BF00BF094819
:102780000078401E0749087000BF00BF0098FDF7A1
:1027900069FD00BF00BF00BF0020288000BF97E791
:1027A0000C01002054010020544D522098010020BB
:1027B00038B505460C4627480078002804DD47F266
:1027C00043302080002038BD25B947F242302080B8
:1027D0000020F8E720492868884204D045F6C45014
:1027E00020800020EFE76846FEF7ECFE95F82A000F
:1027F00000B3012812D0022802D0032822D10EE013
:10280000284602F03FFE0021284602F061FD68469E
:10281000FEF744FF002020800120D4E700BF002104
:10282000284602F055FD6846FEF738FF002020805C
:102830000120C8E76846FEF731FF47F23D302080AF
:102840000020C0E76846FEF729FF47F241302080AC
:102850000020B8E70C010020544D522024482548A0
:1028600025482648264827482748284828482948F0
:1028700029482A482A482B482B482C482C482D48C0
:102880002D482E482E482F482F4830483048314890
:102890003148324832483348334834483448354860
:1028A0003548364836483748374838483848394830
:1028B00039483A483A483B483B483C483C483D4800
:1028C0003D483E483E483F483F48404840484148D0
:1028D00041484248424843484348444844484548A0
:1028E0004548464846484748474800BF70470000AB
:1028F000A88C0008108E0008AA8C0008AB8C000879
:10290000AC8C0008B08C0008B48C0008B18C0008B6
:10291000DC8C0008DD8C0008DE8C0008E08C0008F0
:10292000E28C0008E48C0008E68C0008E88C0008C3
:10293000088D00080A8D00080C8D00080E8D000817
:10294000108D0008128D0008148D0008408D0008BD
:10295000418D0008428D0008448D0008468D000816
:10296000478D0008488D00084A8D00084C8D0008EE
:102970004E8D0008508D0008528D0008548D0008BF
:10298000848D0008858D0008868D0008878D0008DD
:10299000888D00088A8D00088C8D0008B48D000891
:1029A000B58D0008B68D0008B78D0008B88D0008F9
:1029B000BA8D0008BC8D0008C08D0008C18D0008CC
:1029C000C28D0008C38D0008C48D0008C58D0008A5
:1029D000C68D0008C78D0008C88D0008CA8D000884
:1029E000CB8D0008CC8D0008CE8D0008D08D00085E
:1029F000D18D0008D48D0008088E0008098E0008CB
:102A00000A8E00080C8E00080E8E00080021034A72
:102A10001160034A118001807047000024010020EA
:102A2000280100202DE9F04F85B0044689469246E2
:102A30009B46DDF838800020009000BF00BFFDF706
:102A40000DFC009000BF00BFBAF1000F0AD0BAF130
:102A5000010F0DD0BAF5004F05D06FF4004050447F
:102A600060B906E000BF206A40EA0900206214E075
:102A700000BF206A20EA090020620EE000BF00BF0C
:102A80000098FDF7EFFB00BF00BF45F62560A8F8F2
:102A90000000002005B0BDE8F08F00BFC4F824B0EE
:102AA00004F1080001900198008958B900BF00BFE7
:102AB0000098FDF7D7FB00BF00BF0020A8F800007A
:102AC000206AE7E700BF61480078401C5F49087052
:102AD00000BF00BF0098FDF7C5FB00BF00BF00BFEF
:102AE00001980768BD687FE07868029095F88800D3
:102AF00000F00F0003900398012821D002282ED067
:102B0000042802D0082836D10EE0206AD5F88010BB
:102B100000EA0106D5F88000B04204D15A46314699
:102B2000284600F097F859E0206AD5F8801000EAAE
:102B3000010626B15A463146284600F08BF84DE092
:102B4000D5F88000216A20EA0106D5F88000B0425D
:102B500004D15A463146284600F07CF83EE0D5F8CC
:102B60008000216A20EA010626B15A4631462846ED
:102B700000F070F832E000BF00BF00BFFDF76EFB51
:102B8000009000BF00BF31480078401E2F490870F8
:102B900008460078A0B92E480088002809DD00BF4B
:102BA00000BF0098FDF75EFB00BF00BF00F032FFE2
:102BB0000DE000BF00BF0098FDF754FB00BF06E02A
:102BC00000BF00BF0098FDF74DFB00BF00BF00BF76
:102BD00043F6FF20A8F8000000205BE700BF029F3B
:102BE0000FB1BD6800E00025002D7FF47DAF00BF70
:102BF00000BF00BFFDF732FB009000BF00BF1348CD
:102C00000078401E1149087000BF00BF0098FDF712
:102C100029FB00BF00BF00BF0AF4004008B9FEF75F
:102C20007DFC00BF00BFFDF719FB009000BF00BF97
:102C3000206A049000BF00BF0098FDF713FB00BF9F
:102C400000BF0020A8F80000049823E754010020EA
:102C50001801002070B504460E461546343426652A
:102C6000002060702070E560A078343C082816D2FF
:102C7000DFE800F0040508090706101100BF00BFD7
:102C800000BF0DE000BF204601F028FC002084F8C2
:102C9000360005E000BF042084F8360000E000BFE5
:102CA00000BF204600F05BFC70BD0000002400BFA8
:102CB00019E000BF00BFFDF7D1FA044600BF00BF16
:102CC00009480068401C0849086008480068401C22
:102CD0000649086000BF00BF2046FDF7C3FA00BFE9
:102CE00000BFFEF7A7FAE4E7080100206C0100200E
:102CF00010B58AB0044600200E4908600B20002160
:102D00000591CDE90704069108460B4909680B4A6D
:102D100012680B4B1B68CDE90132CDE903103F204F
:102D20000023084A08A100900C48FEF753FE0AB0A1
:102D300010BD0000080100200C8C0008088C000861
:102D4000048C0008AD2C000875432F4F532D4949C2
:102D5000492049646C65205461736B00A8280020E9
:102D60002DE9F84F04460D4616461F46DDE90BAB2C
:102D7000DDF82890DDF834800020009000BF00BF0F
:102D8000FDF76CFA009000BF00BF2B4800882B496C
:102D9000098888423EDA28480088401C2649088075
:102DA000274800880988884203DA23480088244994
:102DB0000880244800680460224800688560214833
:102DC0000068C6601F48006807821E480068C0F897
:102DD00014901C480068A0F818A01A480068C0F8B1
:102DE0001CB0184800684068164908600120164960
:102DF0000881164808604860002000F07FFC1448F5
:102E0000007818B112480078124908700020A8F81C
:102E1000000008E010480088401C0F49088044F278
:102E20005360A8F8000000BF00BF0098FDF71AFA31
:102E300000BF00BFBDE8F88F18010020188C000803
:102E40001A010020100100203C2A00206C290020DB
:102E50003A0100203C0100201C0100203EB55948E9
:102E600000680068584A811A904279D00FDC5749AF
:102E7000084400283ED056490844A8B155490844A2
:102E8000002860D05449084400286AD13FE05348E4
:102E90000844002850D052490844002862D05149C3
:102EA00008440028F1D110E002A8464D00902D689A
:102EB000EB69444D2D682A8B424D2D686969414D5F
:102EC0002D68A868FFF7AEFD7AE002A93D480068CA
:102ED000C0693C4DCDE900012D682B8B394D2D6823
:102EE0002A8A384D2D68E968364D2D68A86800F0AB
:102EF00035FC65E0334B1B68DA69324B1B68198B74
:102F0000304B1B68986802AB00F052FE58E002A9F3
:102F10002C480068C0692B4DCDE900012D682B8B32
:102F2000284D2D682A8A274D2D68E968254D2D6882
:102F3000A86801F0CDF943E022490968886802A930
:102F400001F0DAFA3CE01F4B1B68DA691D4B1B6885
:102F5000198B1C4B1B68986802AB01F079FB2FE0C2
:102F600007E02CE017490968886802A901F0D2FD42
:102F700026E01D49097801EB41011C4A02EB810062
:102F800000F0A2FD0F48006802AB0021C26918489A
:102F900001F05EFB17480068401E164908600846AD
:102FA000006858B9144800680860FDF799FC0446A9
:102FB00002AB22460021114801F04AFB00E000BFAD
:102FC00000BF3EBD140100205449434BADBAB2BE10
:102FD0000DF90BFAF2F8F7FF0006F6FF00F7FDF720
:102FE00000FFEFFF03FE0FFE3C0100203C2A002003
:102FF000002E0020A8010020A4010020C42E0020E3
:10300000002700BF4CE0002648E000BF00BFFDF7EE
:1030100025F9074600BF00BF2248008888B9002074
:10302000214908810860486000F07AFB00BF00BFBA
:103030003846FDF717F900BF00BFFEF76FFA01260B
:103040002CE000BF00BF3846FDF70CF900BF00BF01
:10305000FDF746FC0546FFF701FFFDF741FC441B69
:1030600012480068A04201D21048046000BF00BFAF
:10307000FDF7F4F8074600BF00BF0D480068406840
:103080000B49086007480088401E0649088000BFB9
:1030900000BF3846FDF7E6F800BF00BF002EB4D0F1
:1030A000B1E70000180100203C2A00202001002088
:1030B00014010020F0B589B0054600203149088090
:1030C0003148006820B944F25260288009B0F0BD50
:1030D0002E480088022803DA44F254602880F5E77D
:1030E00000202B490860284804682646203600271F
:1030F0000CE0284820600020A060E0602082606131
:103100002083666020342036781C87B21F480088F0
:103110008742EEDB203C1C48066866601E4806605D
:103120001E48066000201E4908801E4908801E486F
:10313000006818B944F255602880C7E71B4800684A
:103140001B490968884203D244F256602880BDE7D3
:10315000032000210591CDE9070506911348006879
:10316000144A1268104B1B68CDE90301CDE9013206
:1031700000910B46104A11A11748FEF72BFC00BF27
:10318000A4E700001C010020148C0008188C000823
:10319000200100204E4F4E45100100201401002058
:1031A000180100201A010020208C0008288C00083B
:1031B000608C0008248C00080130000875432F4FF4
:1031C000532D494949204953522051756575652051
:1031D0005461736B000000006C2900200021034A39
:1031E0001160034A11800180704700002C0100200B
:1031F0003001002070B502460B46104611461031D2
:103200005E1EB5B2002408E001600026466006811B
:10321000C66010301031661CB4B2AC42F4DB00263C
:10322000066046600681C66070BD000010B50446A9
:103230001048006818B945F21E70208010BD0E4875
:10324000008818B945F21D702080F7E70A48018808
:1032500008480068FFF7CEFF064800680749086085
:103260000548008888800020C8800881208000BF31
:10327000E4E70000448C00083C8C0008302A002061
:1032800010B5014648894B89002B17DD0A680C4BA5
:103290001B6813600A4C4B6823602346DB884C890B
:1032A0001B1B074CE38023469B884C892344044C1A
:1032B000A38000234B818B810B604B6010BD00000D
:1032C000302A002001810022428182810260426016
:1032D000704700002DE9F0410D46DDE90674B0F8B5
:1032E0000AC0B0F80880C44505DB46F2935CA4F838
:1032F00000C0BDE8F081DFF8D4C0BCF804C0BCF168
:10330000000F04D145F21D7CA4F800C0F1E7DFF8FE
:10331000BCC0DCF80010DFF8B480D1F800C0C8F8F9
:1033200000C0C446BCF804C0ACF1010CA8F804C04D
:10333000C446BCF806C00CF1010CA8F806C0C4468F
:10334000BCF808C0B8F80680C44507DADFF87CC0CE
:10335000BCF806C0DFF87480A8F808C0B0F80AC04E
:10336000BCF1000F06D1016041604FF0010CA0F8E4
:103370000AC017E003F0100CBCF1000F07D106687B
:1033800031604FF0000CC1F800C0016004E0D0F8DB
:1033900004C0C1F800C04160B0F80AC00CF1010CD3
:1033A000A0F80AC0B0F80CC0B0F80A80C44503DA2F
:1033B000B0F80AC0A0F80CC04D600A81CF604FF091
:1033C000000CA4F800C000BF93E70000302A0020E2
:1033D0000021034A1160034A1180018070470000F8
:1033E00034010020380100202DE9F04105460C464B
:1033F00016461F461548006880F8346000201349BF
:10340000096881F8350039461048006800F096FEDA
:103410006CB104F10808EC60012229460B480068F1
:1034200000F016F82946404600F066F806E0002055
:1034300006490968C887054909680863034801689F
:10344000204600F019F8BDE8F0810000AC01002032
:1034500010B5C287016300230AE000244C600C60B1
:103460000C614C610C83CC61886020315C1CA3B280
:103470009342F2DB10BD000030B548B14568C1F899
:10348000C05000F10804226893681D6AC56113E00A
:1034900091F83450022D02D0072D08D103E007A582
:1034A000C1F8C05007E007A5C1F8C05003E008A567
:1034B000C1F8C05000BF00BF30BD00005461736B45
:1034C000205100005461736B2053656D00000000B3
:1034D0002000000030B507A5C1F8C05000F1080475
:1034E00022681AB193681D6AC56101E001A5C56132
:1034F00030BD000020000000F0B58E6896F837500F
:1035000007893FB90127078100274F600F600160DD
:10351000416023E007897F1C0781026806E0946808
:1035200094F83770AF4200DD02E05268002AF6D10D
:1035300000BF32B900274F6043680B60596041609B
:103540000CE017682FB9116000270F604A60016016
:1035500004E013680B604A6059601160F0BD2DE90A
:10356000F0410446256BE68F0AE0D5F80C8008F19F
:1035700008072946384600F00AF82035701E86B242
:10358000002EF2DC0020E0872063BDE8F08110B55A
:103590000489012C03D100240460446011E00C680C
:1035A00024B94A680024146002600AE04C6824B917
:1035B0000B6800245C60436003E00B684A685A6053
:1035C00013600489641E048100244C600C6010BDEB
:1035D0002DE9F84306460C4617469846089D94F890
:1035E0003600082850D2DFE800F004050809060775
:1035F0002B2C00BF00BF00BF47E000BF94F8340091
:10360000032807D143463A4621463046009500F04C
:103610003FF803E0E765A4F86080256436B12046F2
:10362000FFF79DFF21463046FFF754FF204600F08C
:1036300055FF00203434A070607004F8340924E091
:1036400000BF94F83400032807D143463A46214688
:103650003046009500F01CF803E0E765A4F86080B0
:103660002564204601F0F0FB36B12046FFF777FFD6
:1036700021463046FFF72EFF04203434A07000208E
:10368000607004F8340900E000BF00BFBDE8F883B3
:10369000F0B50446059E086BCD8F0AE0C768A742C7
:1036A00004D1046142610383C66104E020306F1ECF
:1036B000BDB2002DF2DC00BFF0BD000070B50025EA
:1036C000074C03E005F12000C5B2241D2068002846
:1036D000F8D02068FCF7CDFD2844C5B2284670BD5F
:1036E000E4000020002004E00021034A42F82010FA
:1036F000401C0228F8D37047E400002030B542098E
:1037000000F01F030121C3F11F04A140034C54F832
:1037100022400C43014D45F8224030BDE40000201A
:1037200030B5420900F01F030121C3F11F04A1407D
:10373000034C54F822408C43014D45F8224030BDE3
:10374000E40000200021034A1160034A1180018037
:103750007047000040010020440100202DE9F04F97
:1037600085B007468A4693461C460020029000BF5B
:1037700000BF00BFFCF772FD029000BF00BF4848C9
:103780000078401C4649087000BF00BF0298FCF753
:1037900069FD00BF00BF00BF07F10806308900289F
:1037A00042D104F0100010B94FF0000801E04FF0D2
:1037B0001008DDE90E0143465A46CDE900015146A5
:1037C00007F12000FFF786FD00BF00BF00BFFCF738
:1037D00045FD029000BF00BF31480078401E3049CF
:1037E000087008460078A0B92E480088002809DD36
:1037F00000BF00BF0298FCF735FD00BF00BF00F01E
:1038000009F90DE000BF00BF0298FCF72BFD00BFD7
:1038100006E000BF00BF0298FCF724FD00BF00BF18
:1038200000BF05B0BDE8F08F04F4007008B1358921
:1038300000E00125D6F8009011E0D9F808000390C7
:10384000D9F8040004900E985B4652460090384622
:103850000399FFF7BDFEDDF81090681E85B2002DBC
:10386000EBD100BF00BF00BFFCF7F8FC029000BF27
:1038700000BF0B480078401E0949087000BF00BF18
:103880000298FCF7EFFC00BF00BF00BF04F400404B
:1038900008B9FDF743FE00210F98018000BFC0E783
:1038A000540100201801002000210AE001EB410230
:1038B000054B03EB820000220281026042604A1C39
:1038C000D1B24029F2D370473C2A002010B50446FB
:1038D00094F83700FFF712FF94F83700054909788C
:1038E000884203D1204600F027F802E0204600F08D
:1038F00003F810BD3A01002010B590F8373003EB03
:1039000043030C4C04EB83010B893BB901230B816E
:103910000023C36003610860486009E00B895B1CF9
:103920000B810B68C360002303610A6810610860A3
:1039300010BD00003C2A002010B590F8373003EB92
:1039400043030B4C04EB83010B893BB901230B812F
:103950000023C36003610860486008E00B895B1CBA
:103960000B810023C3604A680261D060486010BDCB
:103970003C2A002010B501460C8924B1012C03D04B
:10398000022C0CD101E000BF14E008684A68026113
:103990000024C4601461D0600A6048600AE00868CE
:1039A0004A68C36800241C61C4600261D0600B6077
:1039B000486000BF00BF10BD2DE9F041054695F8F5
:1039C000370000EB4000124901EB80042F69EE68DC
:1039D00087B946B9002020812060606095F83700E3
:1039E000FFF79EFE0EE02089401E208100203061FE
:1039F000266007E02089401E2081FE600EB96760C6
:103A000000E0376100202861E860BDE8F081000037
:103A10003C2A002010B5002400BFFCF71FFC044620
:103A200000BF00200D4908700D480E490860084687
:103A30000068D0F89000401C0968C1F890000A485E
:103A40000068401C084908604FF080500749086032
:103A500000BF2046FCF706FC00BF10BD3B01002064
:103A60006C290020B00100208001002004ED00E05E
:103A700010B504480078012803D1FCF731FF024952
:103A8000086010BD540100204801002010B50A480C
:103A9000007880B9FCF724FF08490968441A0848EF
:103AA0000068A04201D20648046006480068A042AF
:103AB00001D20448046010BD5401002048010020D8
:103AC0004C0100205001002070B5054600262E480C
:103AD0000078012800D070BD00BF00BFFCF7BEFB1E
:103AE000064600BF00BF2C683CB900BF00BF30468F
:103AF000FCF7B8FB00BF00BFEDE72448844207D1C4
:103B000000BF00BF3046FCF7ADFB00BF00BFE2E7DF
:103B1000A06D10B1A06D401EA065A06D38B100BFB2
:103B200000BF3046FCF79EFB00BF00BFD3E72889EB
:103B3000022807DA00BF00BF3046FCF793FB00BF46
:103B400000BFC8E712480078002807DD00BF00BFAB
:103B50003046FCF787FB00BF00BFBCE72846FFF7F5
:103B600009FF2C68606D18B90A480068A06501E07B
:103B7000606DA06500BF00BF3046FCF773FB00BF5F
:103B800000BF00BFA7E700005C010020A8280020BC
:103B900054010020580100200021034A1160034A0B
:103BA0001180018070470000600100206401002046
:103BB0002DE9FF5F0446884691461D46002001908E
:103BC00000BF00BFFCF74AFB019000BF00BF04F13B
:103BD0000807388900284FD10420012804D0022882
:103BE00014D0042834D123E0206AFF280DD100BF6F
:103BF00000BF0198FCF736FB00BF00BF46F6C5507A
:103C00002880002004B0BDE8F09F22E04FF6FF714D
:103C1000206A88420BD100BF00BF0198FCF722FB4D
:103C200000BF00BF46F6C55028800020EAE710E03C
:103C3000206A401C58B900BF00BF0198FCF712FB76
:103C400000BF00BF46F6C55028800020DAE700E03C
:103C500000BF00BF206A401C2062D4F820A0C4F836
:103C6000249000BF00BF0198FCF7FCFA00BF00BF22
:103C7000002028805046C5E700BF25480078401C3A
:103C80002349087000BF00BF0198FCF7EBFA00BFA2
:103C900000BF00BF08F4007008B13E8900E00126B3
:103CA000D7F800B011E0DBF808000290DBF8040060
:103CB000039000231A46CDF8009020460299FFF7A2
:103CC00087FCDDF80CB0701E86B2002EEBD1D4F864
:103CD00020A000BF00BF00BFFCF7C0FA019000BFEA
:103CE00000BF0B480078401E0949087000BF00BFA4
:103CF0000198FCF7B7FA00BF00BF00BF08F400400E
:103D000008B9FDF70BFC0020288050467AE7000038
:103D10005401002086B00020009000BF06E0C34997
:103D20000968480001AA0021FEF70EFBC048007890
:103D30000128F4D101A8FDF72FFD0027BD48006838
:103D4000BA490968884205D9BA480068B74909687C
:103D5000B0FBF1F727B9B74800680A21B0FBF1F7CB
:103D600062E1FCF7BDFD804600BF00BFFCF776FABC
:103D7000009000BF00BFB0480068B0490860002054
:103D8000AD49086000BF00BF0098FCF76BFA00BFA8
:103D900000BFAB480068A9490968884248D9A848CB
:103DA0000068A849884205D242F2107003900120B1
:103DB000029023E0A2480068A349884205D24FF44C
:103DC0007A7003900A20029018E09D4800689F498D
:103DD000884203D26420039002900FE09848006864
:103DE0009B49884205D20A2003904FF47A700290D2
:103DF00004E00120039042F21070029090480168A4
:103E00000298B1FBF0FA8D49039809684843B0FB6A
:103E1000FAF042F21071081A8E4908808E48008824
:103E20000988884208DA8B4800888B49088003E0BB
:103E300042F2107087490880FDF7C2FD002500BFDF
:103E400000BFFCF70BFA009000BF00BF8348046876
:103E500000BF00BF0098FCF705FA00BF00BF5AE0A2
:103E600000BF00BF00BFFCF7F9F9009000BF00BF22
:103E70007B480078401C7A49087000BF00BF00985A
:103E8000FCF7F0F900BF00BF00BF54F89C0F606062
:103E9000002044F89C0900BF00BF00BFFCF7DEF91A
:103EA000009000BF00BF6E480078401E6C4908704B
:103EB00008460078A0B96B480088002809DD00BFDB
:103EC00000BF0098FCF7CEF900BF00BFFFF7A2FDCE
:103ED0000DE000BF00BF0098FCF7C4F900BF06E08A
:103EE00000BF00BF0098FCF7BDF900BF00BF00BFD6
:103EF000D4F8A000054400BF00BFFCF7AFF9009064
:103F000000BF00BFD4F8BC4000BF00BF0098FCF762
:103F1000A9F900BF00BF002CA2D145B34948854292
:103F200005D242F2107005904FF0010B1BE046489D
:103F3000854205D24FF47A7005904FF00A0B12E0DB
:103F40004248854203D26420059083460BE04048F6
:103F5000854204D20A2005904FF47A7B03E00120C9
:103F6000059042F2107BB5FBFBF0049003E00020CB
:103F700005900120049000BF00BFFCF76FF900908E
:103F800000BF00BF3548046800BF00BF0098FCF7C1
:103F900069F900BF00BF2BE0D4F8A00005994843A1
:103FA0000499B0FBF1F086B242F21070864200D95B
:103FB0000646A4F88C60B4F88E00B04201DAA4F88A
:103FC0008E6001AB04F1AC02111D2046FEF77EF8B5
:103FD00000BF00BFFCF742F9009000BF00BFD4F85B
:103FE000BC4000BF00BF0098FCF73CF900BF00BF19
:103FF000002CD1D11C480078012805D100201A4995
:10400000087001A8FDF7C8FBFCF76AFCA0EB0809E3
:1040100016480068484502D21448C0F8009001AA2A
:1040200000213846FEF790F99BE600004C8C000812
:1040300078010020648C00086C01002074010020CD
:1040400070010020801A060000093D00005A62023B
:104050000084D717680100206A0100208401002035
:104060005401002018010020660100207C0100207E
:1040700010B58AB0044600201F4908601F49086037
:104080001F4908601F4908701F4908701F480068D1
:1040900020B946F62B6020800AB010BD1C4800688D
:1040A0001C490968884203D246F62C602080F3E759
:1040B000194800783F2803D346F62A602080EBE7B2
:1040C000032000210591CDE9070406910846104917
:1040D0000968124A12680D4B1B68CDE90132CDE91F
:1040E00003100D48007800230D4A0EA100901248DD
:1040F000FDF770FC00BFCFE76C01002074010020C9
:10410000700100207801002066010020508C00081A
:10411000588C0008608C0008488C0008548C0008FB
:10412000153D000875432F4F532D494949205374BD
:104130006174205461736B003C2D002038B5044637
:104140000D4685B16B4602222946204600F09EFDB1
:10415000BDF8000018B9032084F8360006E00220FC
:1041600084F8360002E0022084F836002046FFF78B
:1041700023FC38BD0021C0F8B8100949096819B9F5
:104180000021C0F8BC1007E005490968C0F8BC1060
:1041900003490968C1F8B800014908607047000088
:1041A00084010020D0F8B820D0F8BC104AB90D4BDB
:1041B000196011B10023C1F8B8300023C0F8BC3039
:1041C0000FE029B90023C2F8BC30C0F8B83008E0CD
:1041D000C2F8BC10C1F8B8200023C0F8BC30C0F849
:1041E000B8307047840100200021044A1160044A5D
:1041F0001180044A11600180704700008401002092
:10420000880100208001002070B504460020206055
:10421000A0606060E06020616061A061E06129A051
:10422000206200206062A062E0622064E065A4F881
:104230006000002104F16400FFF744F8002044F816
:10424000740F6060E060A0822061743C002506E08D
:10425000002104F17C0040F82510681CC5B2002D37
:10426000F6D000203434206120676067606084F8F5
:104270005600E067A06720814FF000406061002099
:10428000A061E06120626062A4F85800A4F85A00BE
:10429000E0652066FCF724FB064666660020A06603
:1042A000C4F8800020706070A0704020E070002092
:1042B000C4F88400C4F8880004A0C4F88C00343C1E
:1042C00070BD00003F5461736B00000020000000CF
:1042D0002DE9FC4704460F4690469946DDE90A65FC
:1042E0004FF0000A00BF00BF00BFFBF7B7FF8246D8
:1042F00000BF00BF76480078401C7549087000BFB9
:1043000000BF5046FBF7AEFF00BF00BF00BF0CB9B7
:10431000704804680020288094F8360008287DD270
:10432000DFE800F004053E3F0607404100BF00BF44
:1043300000BF4B464246394604F16400CDE90065B2
:10434000FEF7C8FF00BF00BF00BFFBF787FF824634
:1043500000BF00BF5E480078401E5D4908700846F7
:104360000078A0B95C480088002809DD00BF00BFC4
:104370005046FBF777FF00BF00BFFFF74BFB0DE098
:1043800000BF00BF5046FBF76DFF00BF06E000BF57
:1043900000BF5046FBF766FF00BF00BF00BF93E0C1
:1043A00000BF00BF00BF94F83400022821D143466B
:1043B0003A46214600200096FFF70AF900BF00BFE9
:1043C00000BFFBF74BFF824600BF00BF40480078AC
:1043D000401E3F49087000BF00BF5046FBF742FF38
:1043E00000BF00BF00BF09F4004090BBFDF796F886
:1043F00038E04B464246394604F16400CDE9006599
:10440000FEF768FF00BF00BF00BFFBF727FF824633
:1044100000BF00BF2E480078401E00E023E02C497A
:10442000087008460078A8B92B480088002809DDE4
:1044300000BF00BF5046FBF715FF00BF00BFFFF7EE
:10444000E9FA0EE000BF00BF5046FBF70BFF00BFCC
:1044500007E007E000BF00BF5046FBF703FF00BFC7
:1044600000BF00BF30E000BF00BF00BFFBF7F6FE9B
:10447000824600BF00BF16480078401E14490870ED
:1044800008460078A0B914480088002809DD00BF5C
:1044900000BF5046FBF7E6FE00BF00BFFFF7BAFAC9
:1044A0000DE000BF00BF5046FBF7DCFE00BF06E09A
:1044B00000BF00BF5046FBF7D5FE00BF00BF00BFE6
:1044C00046F62D60288000BF00BFBDE8FC870000D5
:1044D00054010020AC0100201801002010B5044652
:1044E000204600F0B1FC94F8360000F0040010B94A
:1044F0002046FFF7EBF910BD70B504460D460026C7
:1045000000BF00BFFBF7AAFE064600BF00BF0020A9
:10451000288094F8360008287BD2DFE800F00405F4
:1045200006071243556700BF00BF00BF00BF00BFB2
:104530003046FBF797FE00BF00BF47F253102880BC
:1045400072E000BF3B480078401C3A49087000BF49
:1045500000BF3046FBF786FE00BF00BF00BF14F867
:104560008A0F401E207014F88A0928B9002084F8A8
:1045700036002046FFF7B2FF00BF00BF00BFFBF7C9
:104580006DFE064600BF00BF2A480078401E29493C
:10459000087000BF00BF3046FBF764FE00BF00BFDD
:1045A00000BF41E014F88A0F401E207014F88A09F9
:1045B00010B9012084F8360000BF00BF3046FBF779
:1045C00051FE00BF00BF2FE014F88A0F401E20707C
:1045D00014F88A0910B9022084F8360000BF00BF21
:1045E0003046FBF73FFE00BF00BF1DE014F88A0F06
:1045F000401E207014F88A0910B9032084F8360090
:1046000000BF00BF3046FBF72DFE00BF00BF0BE030
:10461000FFE700BF00BF3046FBF724FE00BF00BF2E
:1046200046F62D60288070BD00BFFCF777FF00BF05
:10463000F9E700005401002008B504480068FDF7C0
:104640002FFC69460020FDF7FFFA08BDAC010020F1
:104650002DE9F8430446884617461D464FF00009E9
:1046600000BF00BF00BFFBF7F9FD814600BF00BFE0
:10467000FE480078401CFD49087000BF00BF484656
:10468000FBF7F0FD00BF00BF00BF0CB9F84804689D
:1046900027640020288094F83600082871D2DFE8CB
:1046A00000F00405EBEC0607EDEE00BF00BF00BF15
:1046B0000420012804D0022839D004286FD170E0EA
:1046C000606CFF2832D100BF00BF00BFFBF7C6FD02
:1046D000814600BF00BFE5480078401EE3490870EE
:1046E00008460078A0B9E3480088002809DD00BF2B
:1046F00000BF4846FBF7B6FD00BF00BFFFF78AF9D1
:104700000DE000BF00BF4846FBF7ACFD00BF06E070
:1047100000BF00BF4846FBF7A5FD00BF00BF00BFBC
:1047200046F6C55028800020BDE8F88371E04FF6BA
:10473000FF71606C884233D100BF00BF00BFFBF740
:104740008DFD814600BF00BFC8480078401EC749A4
:10475000087008460078A8B9C6480088002809DD16
:1047600000BF00BF4846FBF77DFD00BF00BFFFF75D
:1047700051F90EE000BF00BF4846FBF773FD00BFD4
:1047800007E08DE100BF00BF4846FBF76BFD00BFAF
:1047900000BF00BF46F6C55028800020C4E737E0C0
:1047A00037E0606C401C88BB00BF00BF00BFFBF758
:1047B00055FD814600BF00BFAC480078401EAB49A4
:1047C000087008460078A0B9AA480088002809DDCA
:1047D00000BF00BF4846FBF745FD00BF00BFFFF725
:1047E00019F90DE000BF00BF4846FBF73BFD00BFD5
:1047F00006E000BF00BF4846FBF734FD00BF00BF26
:1048000000BF46F6C550288000208DE7FFE700E096
:1048100000BF00BF606C401C6064666C00BF00BFDE
:1048200000BFFBF71BFD814600BF00BF8F4800782B
:10483000401E8E49087008460078A0B98D4800884F
:10484000002809DD00BF00BF4846FBF70BFD00BF95
:1048500000BFFFF7DFF80DE000BF00BF4846FBF7E1
:1048600001FD00BF06E000BF00BF4846FBF7FAFCB1
:1048700000BF00BF00BF45E100BF00BF00BF94F80C
:104880003400072823D100231A46214618460097F2
:10489000FEF79EFE666C00BF00BF00BFFBF7DEFCAC
:1048A000814600BF00BF71480078401E6F49087004
:1048B00000BF00BF4846FBF7D5FC00BF00BF00BFEC
:1048C00008F40040002801D1FCF728FEE7E00420AE
:1048D000012804D0022838D004286ED16EE0606C24
:1048E000FF2831D100BF00BF00BFFBF7B7FC8146F6
:1048F00000BF00BF5D480078401E5C490870084654
:104900000078A0B95B480088002809DD00BF00BF1F
:104910004846FBF7A7FC00BF00BFFFF77BF80DE0A0
:1049200000BF00BF4846FBF79DFC00BF06E000BF8C
:1049300000BF4846FBF796FC00BF00BF00BF46F62D
:10494000C55028800020EFE670E04FF6FF71606CE4
:10495000884231D100BF00BF00BFFBF77FFC81461A
:1049600000BF00BF41480078401E4049087008461B
:104970000078A0B93F480088002809DD00BF00BFCB
:104980004846FBF76FFC00BF00BFFFF743F80DE0A0
:1049900000BF00BF4846FBF765FC00BF06E000BF54
:1049A00000BF4846FBF75EFC00BF00BF00BF46F6F5
:1049B000C55028800020B7E638E036E0606C401C27
:1049C00088BB00BF00BF00BFFBF748FC814600BFAB
:1049D00000BF26480078401E244908700846007829
:1049E000A0B924480088002809DD00BF00BF484660
:1049F000FBF738FC00BF00BFFFF70CF80DE000BF6D
:104A000000BF4846FBF72EFC00BF06E000BF00BF1A
:104A10004846FBF727FC00BF00BF00BF46F6C55065
:104A20002880002080E6FFE700E000BF00BF606C48
:104A3000401C6064666C00BF00BF00BFFBF70EFC4B
:104A4000814600BF00BF09480078401E0749087032
:104A500008460078D8B907480088002810DD00BF54
:104A600000BF4846FBF7FEFB00BF05E054010020F5
:104A7000AC0100201801002000BFFEF7CBFF0DE0C5
:104A800000BF00BF4846FBF7EDFB00BF06E000BFDC
:104A900000BF4846FBF7E6FB00BF00BF00BF31E0A8
:104AA00000BF00BF00BFFBF7D9FB814600BF00BFBE
:104AB00016480078401E1549087008460078A0B9CD
:104AC00013480088002809DD00BF00BF4846FBF7F7
:104AD000C9FB00BF00BFFEF79DFF0DE000BF00BF98
:104AE0004846FBF7BFFB00BF06E000BF00BF4846DB
:104AF000FBF7B8FB00BF00BF00BF46F62D60288063
:104B0000002600BF00BF30460EE600005401002022
:104B10001801002070B504460D46002600BF00BFF6
:104B2000FBF79CFB064600BF00BF0CB94B4804686E
:104B30004A48006884420ED14948007800280ADDBE
:104B400000BF00BF3046FBF78DFB00BF00BF46F63D
:104B50006350288070BD0020288094F83600082813
:104B60006CD2DFE800F004313F4D5B5C5D5E00BF5E
:104B70003B480078401C3A49087000BF00BF3046EF
:104B8000FBF770FB00BF00BF00BF042084F83600B5
:104B9000012084F88A002046FEF70EFF00BF00BF08
:104BA00000BFFBF75BFB064600BF00BF2C48007848
:104BB000401E2B49087000BF00BF3046FBF752FB78
:104BC00000BF00BF00BF44E0052084F8360001208C
:104BD00084F88A0000BF00BF3046FBF743FB00BFEC
:104BE00000BF36E0062084F83600012084F88A00F1
:104BF00000BF00BF3046FBF735FB00BF00BF28E019
:104C0000072084F83600012084F88A0000BF00BF26
:104C10003046FBF727FB00BF00BF1AE000BF00BF14
:104C200000BF94F88A00401C84F88A0000BF00BFCF
:104C30003046FBF717FB00BF00BF0AE000BF00BF14
:104C40003046FBF70FFB00BF00BF46F62D60288003
:104C500080E700BFFCF762FC00BF7BE7AC010020EF
:104C600054010020002108E0064A02EBC1000022A6
:104C700002608280C2804A1C91B2034A128891422B
:104C8000F2DB7047982500207C8C00082DE9F04F5E
:104C90000C4616461D46042E1ED1DFF8A091D9F809
:104CA0000090A4EB0909A9F1010313F5803F0DD988
:104CB0004FF00009C0F84C90C0F85090C0F81C901C
:104CC00047F27E29A5F80090BDE8F08FC46403F197
:104CD0000109C0F850903FE084B3082E25D1D0F8E8
:104CE000489009EB0407DFF85491D9F80090A7EB3E
:104CF0000909A9F10103A34201D2C76406E0DFF864
:104D00003C91D9F80090A144C0F84C90DFF82CA158
:104D1000D0F84C90DAF800A0A9EB0A09C0F850903E
:104D2000D0F84C90C0F8489016E0DFF81091D9F810
:104D30000090A144C0F84C9004650DE0FFE74FF0EF
:104D40000009C0F84C90C0F85090C0F81C9047F291
:104D50007E29A5F80090B7E7DFF8E4A0BAF800A034
:104D6000D0F84C90B9FBFAFB0AFB1B991FFA89F8A3
:104D7000DFF8D09009EBC802B2F80490B9F1000F47
:104D80000BD14FF00009C0F81490C0F818901060D3
:104D90004FF00109A2F804903EE0116834E0DFF81A
:104DA0009CA0D1F84C90DAF800A0A9EB0A09C1F850
:104DB0005090D0F85090D1F850A0D1450ED9D1F8EC
:104DC0001490B9F1000F01D049691DE04FF00009BE
:104DD000C0F8149081614861002115E0D1F8189065
:104DE000B9F1000F07D14FF00009C0F818904161E8
:104DF0008861106007E0D1F818C0C0F818C04161A0
:104E0000CCF81400886100210029C8D1B2F80490C0
:104E100009F10109A2F80490B2F80690B2F804A0D2
:104E2000D14503DAB2F80490A2F80690C2614FF0BF
:104E30000009A5F8009000BF46E700008C010020A3
:104E40007C8C00089825002010B5C269BAB10024F6
:104E500004651468844205D14169116039B10024A8
:104E60008C6104E0816943694B6103B1996100245D
:104E700044618461C461C4649488641E948010BDDC
:104E8000002006E0054A02EBC0010022CA80421C55
:104E900090B2034A12889042F4DB704798250020B4
:104EA0007C8C00082DE9F05F4FF0000B00BF00BFC5
:104EB00000BFFBF7D3F9834600BF00BF71480078FD
:104EC000401C7049087000BF00BF5846FBF7CAF984
:104ED00000BF00BF00BFFBF703FD05466A4800683E
:104EE000401C694908600846006868490988B0FBA9
:104EF000F1F201FB12001FFA80FA654800EBCA08C4
:104F0000D8F80040002782E0002C7FD0D4F814901D
:104F100094F83600082875D2DFE800F00408051B75
:104F2000063D075000BF00BF00BF6CE05649E06C73
:104F30000968401A20655449E06C0968884206D126
:104F4000002084F836002046FFF7C8FA00E0012769
:104F500059E04D49E06C0968401A20654A49E06C07
:104F60000968884215D10020E065A4F86000FBF7CD
:104F7000B7FC20642046FEF7F2FA2046FFF7AEFAAF
:104F800000203434A07003206070002004F834093D
:104F900000E0012737E03C49E06C0968401A2065D1
:104FA0003949E06C0968884206D1042084F836004B
:104FB0002046FFF749FF00E0012724E03249E06C7A
:104FC0000968401A20653049E06C0968884217D1A9
:104FD0000020E065A4F86000FBF782FC2064204616
:104FE000FEF7BDFA2046FFF72FFF04203434A070EF
:104FF00003206070002004F8340902E006E001E0BC
:10500000012700E000BF00BF4C4600E00127002F51
:105010003FF47AAFFBF764FC461B1E480068B042C1
:1050200001D21C48066000BF00BF00BFFBF716F9A5
:10503000834600BF00BF13480078401E1149087026
:1050400008460078A0B914480088002809DD00BF90
:1050500000BF5846FBF706F900BF00BFFEF7DAFCB9
:105060000DE000BF00BF5846FBF7FCF800BF06E0AC
:1050700000BF00BF5846FBF7F5F800BF00BF00BFF8
:10508000BDE8F09F540100208C0100207C8C0008BA
:105090009825002090010020180100201CB500BFB9
:1050A0000EE001AB6A4600210846FCF705FFBDF89B
:1050B000040028B903480078012801D1FFF7F2FE67
:1050C000EFE700000D01002010B58AB00446002073
:1050D0001D4908601D490860FFF7C4FD1C480068B1
:1050E00020B947F2122020800AB010BD194800688C
:1050F00019490968884203D247F213202080F3E758
:10510000164800783F2803D347F211202080EBE7B0
:105110000B20002105910A46CDE9070406910D48B0
:1051200000680F4909680A4B1B68CDE90131CDE9D8
:1051300003020A48007800230A4A0BA100900F4896
:10514000FCF748FC00BFCFE78C0100209001002055
:105150006C8C0008748C0008608C0008688C000857
:10516000708C00089D50000875432F4F532D4949FE
:1051700049205469636B205461736B00002E00203A
:105180000021C1620749096811B90021016305E0E6
:1051900004490968016303490968C8620149086054
:1051A000704700009401002070B58AB004460020CA
:1051B000314908603148006840B1314800682F49E2
:1051C0000968B0FBF1F02F49086006E02C48006840
:1051D0000A21B0FBF1F02B4908602A4800682A49EF
:1051E000086000202949086029490860002508E076
:1051F000284800EBC5060020B080F0803060681CB5
:1052000085B2254800888542F2DB2448006820B931
:1052100047F2473020800AB070BD2148006821491C
:105220000968884203D247F248302080F3E71E48DD
:1052300000783F2803D347F246302080EBE70B206D
:1052400000210591CDE90704069108461449096833
:10525000164A1268114B1B68CDE90132CDE90310E3
:10526000114800780023124A12A100901748FCF759
:10527000B1FB00BFCFE7000094010020888C00083C
:10528000648C0008A4010020A8010020A0010020D7
:105290009C010020202800209C8C00088C8C000899
:1052A000948C0008608C0008848C0008908C0008A6
:1052B000C553000875432F4F532D49494920546960
:1052C0006D6572205461736B00000000C42E0020D5
:1052D000F0B50C46022680F82A60012C05D12D4F2E
:1052E000466A3F683E4486610CE0066A2EB9294F43
:1052F000466A3F683E44866104E0264F066A3F687E
:105300003E448661244F3F888669B6FBF7FC07FB65
:105310001C66B5B2214E06EBC502166836B90026EA
:10532000066146611060012696802CE0194F86695F
:105330003F68F61BC661116820E0164F8E693F6812
:10534000F61BCE61C669CF69BE4209D90E690EB19E
:10535000096913E0002606614161086100210DE042
:105360004E692EB90026466101614861106004E073
:105370004B69436101611861486100210029DCD15A
:105380009688761C9680D6889788BE4201DA9688E1
:10539000D680F0BDA00100209C8C000820280020B1
:1053A000002006E0054A02EBC0010022CA80421C30
:1053B00090B2034A12889042F4DB70472028002004
:1053C0009C8C00081CB500BF53E001AB6A4600216D
:1053D0000846FCF771FD01A8FCF7F4F8FBF780FA2A
:1053E000064624480068401C2249086008460068B8
:1053F00021490988B0FBF1F201FB12001FFA80FA83
:105400001E4800EBCA08D8F800404FF0000B21E01E
:10541000F4B1D4F810901749A0690968884214D1F2
:10542000204600F02FF8208D022804D101212046CB
:10543000FFF74EFF02E0032084F82A00A56815B1AB
:105440002046E168A8474C4604E04FF0010B01E01C
:105450004FF0010BBBF1000FDAD0FBF741FA871BCD
:1054600001A8FCF71BF906480068B84201D20448BD
:105470000760AAE7A00100209C8C000820280020DB
:105480009C010020F0B5114E36888569B5FBF6F712
:1054900006FB1755ACB20E4D05EBC40215688542EC
:1054A00005D10169116039B100254D6104E0416900
:1054B00003690B6103B15961012580F82A50002569
:1054C0000561456195886D1E9580F0BD9C8C000836
:1054D0002028002029B1064AD2690243044BDA6130
:1054E00004E0034AD2698243014BDA61704700004D
:1054F0000010024029B1064A92690243044B9A61A6
:1055000004E0034A92698243014B9A6170470000AC
:105510000010024030B500210022002400232D4D50
:105520006D6805F00C0121B1042905D0082923D1AB
:1055300005E0294D056022E0274D05601FE0254D5F
:105540006D6805F47012234D6D6805F480340225F2
:1055500005EB92421CB9214D554305600BE01D4DF2
:105560006D6805F400351DB11C4D5543056002E022
:10557000194D5543056002E0174D056000BF00BF9F
:10558000144D6D6805F0F0010909154D6B5C056857
:10559000DD4045600F4D6D6805F4E061090A104D6E
:1055A0006B5C4568DD4085600A4D6D6805F46051AF
:1055B000C90A0B4D6B5C4568DD40C560054D6D68E3
:1055C00005F44041890B074D6B5CC568B5FBF3F5ED
:1055D000056130BD0010024000127A0000093D0054
:1055E0007A0000208A000020024909888143014A8C
:1055F000118070470428004001460020064A1288A6
:105600000A40D0B2044A121F12880A4012B108B1EF
:10561000012000E0002070470428004010B5012060
:10562000FFF7EAFF10B10120FFF7DEFF10BD000019
:1056300000B587B0012141F20400FFF75BFFE020D5
:10564000ADF8180018208DF81B0003208DF81A0003
:1056500006A91848FBF74BF9E0211648FBF725FA95
:105660000020ADF804004FF48270ADF80600002071
:10567000ADF808000220ADF80A000120ADF80C00DA
:105680004002ADF80E003820ADF810000020ADF853
:1056900012000720ADF8140001A9074800F066F8D1
:1056A0000121054800F048F8FF2000F007F807B096
:1056B00000BD0000000801400030014070B5054603
:1056C000002405E0601CC4B2C82C01DD002070BDC0
:1056D00002210E4800F03CF80028F3D029460B4880
:1056E00000F042F8002405E0601CC4B2C82C01DDC3
:1056F0000020ECE70121054800F02AF80028F3D04B
:10570000024800F02EF8C0B2E1E70000003001408E
:1057100010B50446074800884FF6C7710840054990
:10572000088008460088204308800121014800F0D5
:1057300003F810BD0030014021B1028842F0400260
:10574000028004E002884FF6BF731A40028070475F
:105750000246002013890B400BB1012000E000201D
:1057600070470146888970478181704710B50022D3
:10577000028802F441520B884C8823438C882343CF
:10578000CC8823430C8923434C8923438C892343AE
:10579000CC8923431A430280838B4FF2FF7423404A
:1057A00083830B8A038210BD704710B500F002F8A6
:1057B00010BD00000CB50020019000903348006837
:1057C00040F480303149086000BF3048006800F480
:1057D000003000900198401C0190009818B9019881
:1057E000B0F5A06FF1D12948006800F4003010B185
:1057F0000120009001E0002000900098012843D192
:105800002348006840F010002149086008460068FD
:1058100020F0030008600846006840F002000860BD
:105820001A48406819494860084640684860084678
:10583000406840F4806048600846406820F47C106E
:1058400048600846406840F4E81048600846006830
:1058500040F08070086000BF0C48006800F00070E5
:105860000028F9D00948406820F003000749486043
:105870000846406840F00200486000BF03484068A6
:1058800000F00C000828F9D10CBD00000010024007
:1058900000200240042808D14FF0E021096941F0BE
:1058A00004014FF0E022116107E04FF0E0210969A7
:1058B00021F004014FF0E0221161704710B5054856
:1058C0000078012805D1FBF7A1FDFCF7C1FEFBF72D
:1058D000B3FD10BD0D01002010B51348006840F065
:1058E00001001149086008464068104908400E4907
:1058F0004860084600680E4908400B4908600846A1
:10590000006820F4802008600846406820F4FE000B
:1059100048604FF41F008860FFF747FF4FF00060BA
:105920000449086010BD0000001002400000FFF8AC
:10593000FFFFF6FE08ED00E010B50121880700F03A
:10594000A7F830B10121880700F090F8014802F073
:10595000A3FB10BD3200002010B50121054800F066
:1059600097F828B10121034800F080F801F062FFA8
:1059700010BD00000004004010B50121094800F0EE
:1059800087F868B10848008840F40040064908805C
:105990000121044800F06AF80021024800F069F88B
:1059A00010BD000000080040D800002010B52C48B1
:1059B000007800F0800000284CD10121294800F037
:1059C00067F8012818D12648007800F0400098B107
:1059D0002348007800F0010048B12148007840F0E9
:1059E00080001F49087001201F49088004E01C48FE
:1059F0000078401C1A49087002211A4800F048F843
:105A0000012827D11648007800F0400078B11448EA
:105A1000007840F0800012490870124800F035F814
:105A20001149088000210F4800F043F812E00020DF
:105A30000B4908700C4908800948007840F0400084
:105A4000074908700021074800F03CF8022105488A
:105A500000F02FF80321034800F008F810BD000003
:105A60003A000020000C004038000020CA430282A7
:105A7000704721B1028842F00102028004E00288EE
:105A80004FF6FE731A40028070470146888E7047B9
:105A900030B50246002000230024158A05EA0103E0
:105AA000958905EA010413B10CB1012000E0002042
:105AB00030BD0A460021018C4FF6FD731940114399
:105AC000018470478184704710B540F225510C481D
:105AD00000F09BF898B140F22551094800F06DF8AC
