:020000040800F2
:10000000684D00204D020008A1140008470F0008A9
:10001000D91300081D0900089B71000800000000AA
:1000200000000000000000000000000095680008CB
:10003000E10C0008000000000F040008C56A000879
:10004000670200086702000867020008D56500081B
:1000500067020008670200086702000867020008DC
:1000600067020008670200086702000867020008CC
:1000700067020008670200086702000867020008BC
:1000800067020008670200086702000867020008AC
:10009000670200086702000867020008670200089C
:1000A000670200086702000867020008670200088C
:1000B0006702000867020008416B00086702000839
:1000C000670200086702000867020008670200086C
:1000D00067020008A96D000867020008E56D0008C6
:1000E000670200086702000867020008670200084C
:1000F000670200086702000867020008670200083C
:100100006702000867020008D56B00086702000854
:10011000670200086702000867020008670200081B
:10012000670200086702000867020008670200080B
:1001300000F002F800F060F80AA090E8000C824499
:100140008344AAF10107DA4501D100F055F8AFF276
:10015000090EBAE80F0013F0010F18BFFB1A43F0A5
:1001600001031847D87C0000F87C000010F8013B20
:100170000A4413F0030408BF10F8014B1D1108BF17
:1001800010F8015B641E05D010F8016B641E01F8C5
:10019000016BF9D1002D15D010F8014B03F00C03C1
:1001A0000C2BA1EB04040ABF10F8013BA4EB831451
:1001B000A4EB032405F1010314F8016B5B1E01F8A5
:1001C000016BF9D5914238BF10F8013BD1D370478C
:1001D0000023002400250026103A28BF78C1FBD850
:1001E000520728BF30C148BF0B6070471FB500F0F1
:1001F0007EF81FBD10B510BD00F0BFF81146FFF727
:10020000F5FF07F01DF900F0DDF803B4FFF7F2FF8A
:1002100003BC07F073F800000B49D1F800C04A682E
:100220005CF8043B1068184442F8040B8C4528BF66
:10023000A1F1DC0C8A4228BFA1F1DC02C1F800C0A8
:100240004A6020F000407047FC4600200948804783
:1002500009480047FEE7FEE7FEE7FEE7FEE7FEE7A8
:10026000FEE7FEE7FEE7FEE704480549054A064BC0
:1002700070470000E16A000831010008684700206B
:10028000684D0020684900206849002072B6704718
:1002900062B67047EFF3108072B6704780F3108833
:1002A000704730BF704720BF7047B0FA80F070478A
:1002B00090FAA0F0B0FA80F0704790FAA0F0704782
:1002C000704700000B4910B5A1F17C020A4CC2E94D
:1002D0003712372106E000EB104342F82130074B7C
:1002E00000FB03400B1EA1F10101F4DC10BD012055
:1002F000E8E700009C460020E119D666CD0D01001C
:1003000030B505460B462A4613F8014B12F8010B8F
:1003100008B1A042F8D01CB1002802D06D1CF1E752
:10032000284630BD4FF0000200B51346944696466D
:10033000203922BFA0E80C50A0E80C50B1F12001F8
:10034000BFF4F7AF090728BFA0E80C5048BF0CC0A6
:100350005DF804EB890028BF40F8042B08BF704704
:1003600048BF20F8022B11F0804F18BF00F8012B76
:1003700070477047704770477047754600F028F81F
:10038000AE4605006946534620F00700854618B082
:1003900020B5FFF769FFBDE820404FF000064FF0A1
:1003A00000074FF000084FF0000B21F00701AC46AA
:1003B000ACE8C009ACE8C009ACE8C009ACE8C009C9
:1003C0008D4670470446AFF300802046FFF71DFFBF
:1003D00000487047044700201D484FF6FF71017028
:1003E000002080F309881B48016881F308881A48B7
:1003F0004FF08051016062B6FEE717484FF0805120
:100400000160704714484FF080510160704772B628
:10041000EFF3098028B1203880E8F00F0F49096810
:10042000086000B50E4880475DF804EB0D480E49A2
:100430000A78027009480D490A680260106890E85D
:10044000F00F203080F309884EF0040E62B670473A
:1004500022ED00E0C013002004ED00E0B8130020FE
:10046000992E00084613002047130020BC130020DB
:1004700038B504464FF4FA75C1E0634800780528A2
:1004800057D2DFE800F003577E8D96005F48007872
:10049000401C5E490870052380220321002000F0E3
:1004A00091FA1020A0235A4A03210090142006F04C
:1004B000CFFE00F069FF09E0012006F059FF05F0CA
:1004C000D5FD5449087008B9002504E02800A5F1BD
:1004D00001018DB2F0D100BF012005F0A4FD4D490E
:1004E0000870B0B9052380220321002000F06AFAC9
:1004F00010208023484A03210090142006F0A8FE13
:1005000000F042FF00204149087001203E49087078
:100510000FE0052380220321002000F053FA102071
:1005200080233E4A03210090142006F091FE00F043
:100530002BFF5EE035480078401C344908700523E5
:1005400080220321002000F03DFA1020A023304A31
:1005500003210090142006F07BFE00F015FF05F04B
:1005600085FD2C49087058B9022005F05CFD294929
:10057000087028B900202549087002202249087017
:1005800037E005F027FE2349087018B903201E49FB
:10059000087004E000201D4908701B49087028E01D
:1005A00005F06BFE1B49087010B90420164908704D
:1005B0001FE02146022005F07DFE16490870A0B913
:1005C000052380220321002000F0FCF91020802365
:1005D000134A03210090142006F03AFE00F0D4FEE6
:1005E000104805F097FE0A2038BD00200649087023
:1005F00000BF00BF05480078052800D100E03CE7B7
:1006000000BF00BFF0E70000E9120020EA1200205E
:10061000180E0020E8120020B80E0020380F00202D
:10062000B80F0020E61200200EB500BF4FF0000901
:1006300000BF00251E27A84600BF00260024A246B2
:1006400036E102A800231A4619460090994801F0A5
:10065000E5FB02A801F0A2FD002004E00C21964A6F
:100660001154411CC8B20528F8DB04238022032161
:10067000002000F0A7F974E01020C0238F4A032166
:100680000090142006F0E4FD00F07EFE0B2C2DD02F
:1006900006F07AFF044600BF06F076FF0C28FBD177
:1006A0000C2C5AD04FF0000800BF4FF00009002674
:1006B0002846691CCDB280490C540B2D03D10B2068
:1006C000C8720B2400257C4800780A2805D00A222D
:1006D0000621384600F032FB04E022460621384667
:1006E00000F02CFB07F10800C7B236E07248007832
:1006F0000A2832D021E0B8F1060F1CDA6E48805D7E
:100700006F4911F80910884208D108F1010000F082
:10071000FF0809F1010000F0FF090CE06648805D68
:1007200067490978884203D14FF00108C14602E0C9
:100730004FF00008C146701CC6B25F48805D0B28B0
:10074000D9D100264FF000090C241E2700250723CD
:1007500080220621002000F035F9B8F1060F00D103
:1007600000E089E700BF002544E004238022032144
:10077000002000F027F91020A023524A0321009006
:10078000142006F065FD00F0FFFD0B2C23D006F0D1
:10079000FBFE044600BF06F0F7FE0C28FBD10C2C34
:1007A00028D04FF0000800BF4FF00009002628466F
:1007B000691CCDB240490C54042D03D10B20C872E2
:1007C0000B24002522460621384600F0B7FA07F12F
:1007D0000800C7B20EE0384840783749097801EB85
:1007E000810100EB410A072380220621002000F04E
:1007F000E9F800E0B9E700BFFFF70EFD3249488194
:100800000846408942F2107190FBF1F02E4988743D
:10081000084640894FF47A7190FBF1F00A2190FB71
:10082000F1F201FB1200C1B22748C1744089642172
:1008300090FBF1F00A2190FBF1F201FB1200C1B232
:100840002148017540890A2190FBF1F090FBF1F2FB
:1008500001FB1200C1B21C48417540890A2190FB7E
:10086000F1F201FB1200C1B2174881755046FFF743
:10087000FFFD002009E0002101E04A1C91B242F294
:1008800010729142F9DB411C88B26428F3DB02A9A3
:100890000E4801F0C5FF02A801F0ECFC02A80021FF
:1008A0004FF4FA730A46CDE90010084602F0C4FB83
:1008B000C7E6000048230020E61300201A000020AD
:1008C00052060020DA000020C41300204019002046
:1008D00000B585B0684605F0F9FD019805B000BD8A
:1008E00078B505460E46144601200AE0A04203DA18
:1008F000FF21094A115402E08121074A1154411C89
:10090000C8B21528F2DB18200346034A314600908E
:10091000284606F09DFC78BDC00B002000BFFEE716
:1009200010B500F01FF800F019F810BD10B5002444
:1009300000BF00BFFFF7AEFC044600BF00BF1021A0
:10094000054800F04BFD00BF00BF2046FFF7A6FCA6
:1009500000BF00BF10BD0000A02A002010B5FFF7A7
:10096000E5FF10BD10B500200249086000F00AF84C
:1009700010BD0000EC120020014908607047000023
:10098000EC12002010B5FFF7A3FF044608480068EA
:1009900040F080700649086000200649486008461B
:1009A000006840F0010008602046FFF7E5FF10BD39
:1009B000FCED00E0001000E00149486870470000CD
:1009C000001000E0F0B504460D4628460EE0214632
:1009D00008E00026074F4FF0800C0CFB00777E5498
:1009E0004E1CF1B29142F4DD411CC8B29842EEDDDA
:1009F000F0BD00007423002010B5002415480068E5
:100A000020F07040134908600846006840F000403C
:100A1000086004E0601CC4B2012000F062F90E48D6
:100A2000006808B1C82CF5DBC82C01DB012010BD23
:100A3000002404E0601CC4B2012000F052F9064812
:100A4000006808B9F02CF5DBF02C01DB0120EEE7A3
:100A50000020ECE7040801403C0121422DE9F84F59
:100A600000F0D6F800F0B2F8FFF7C6FFCC2000F097
:100A7000DBF8BE2000F0D8F800F096F8834600F0CE
:100A800093F80446072C08DDE043C4B26FEA0B007C
:100A900000F0FF0B4FF0000A01E04FF0010AA14601
:100AA0004FEA09200FFA80F909EB0B000FFA80F9E1
:100AB000484607F055F8009007F026F80746002250
:100AC000084B06F023FF054606F0F0FE0FFA80F90A
:100AD000BAF1000F02D04846BDE8F88FC9F1000016
:100AE00000B2F9E70000E43F08B50121042005F059
:100AF000CDFC0121084605F0C9FC01210D4800F09C
:100B0000CDF94FF40040ADF8000010208DF803003F
:100B100003208DF802006946074800F033F94FF4CE
:100B20000041054800F00DFA00F050F8FFF764FFAF
:100B300008BD0000000230000008014010B5174851
:100B4000006820F07040154908600846006840F0D1
:100B500040500860002012490860012000F0C1F8F0
:100B600001201049C1F8BC010C48006820F0704019
:100B70000A4908600846006840F000400860062006
:100B800000F0AFF806488038006808B1012400E0A2
:100B90000024192000F0A5F8204610BD04080140EB
:100BA000BC0121420000214270B50026012508E069
:100BB000FFF7C4FF0446E00140EA6600C6B2681CC5
:100BC000C5B2082DF4DD304670BD000000B50D48FB
:100BD000006820F070400B4908600846006840F04B
:100BE0004050086000200849086040F2771000F08B
:100BF00078F801200549C1F8BC01082000F071F81F
:100C000000BD000004080140BC0121420000214257
:100C100000B5FFF7DBFFFFF7EFFECC2000F004F894
:100C2000442000F001F800BD70B504461748006884
:100C300020F07040154908600846006840F04050B8
:100C4000086001251FE004F0010664106EB1002069
:100C50000F490860012000F044F801200D49C1F857
:100C6000BC011E2000F03DF80BE0002008490860A0
:100C70001E2000F036F801200649C1F8BC0100F042
:100C800030F8681CC5B2082DDDDD70BD04080140D8
:100C9000BC012142000021420EB5002400BF1BE030
:100CA00002A801F07BFA14B9FFF71EFF0124FFF739
:100CB000D5FE0A49C8800846C07840F00400C870D4
:100CC00002A801F0D7FA02A800210B460122CDE9C3
:100CD0000010084602F0B0F9E2E70000C41300205B
:100CE0007047002107E0002201E0531C9AB20C2A51
:100CF000FBDB4A1C91B28142F5DB704710B501461F
:100D0000002007E00422054B802404FB01331A5421
:100D1000421CD0B28028F5DB10BD000074230020F7
:100D200038B504460D4608200346034A294600907C
:100D3000204606F08DFA38BDE00B0020F0B50346E2
:100D4000002017E00D4C04EB0214245C0C4D8026AF
:100D500006FB01551D442C54084C04EB02140444BA
:100D6000257A074E4C1C802707FB04641C4425543D
:100D7000441CE0B20828E5DBF0BD0000E80B0020D1
:100D8000742300202DE9F0410246002500260020B2
:100D900000230024002791F803C00CF00F0591F800
:100DA00003C00CF0100CBCF1000F03D091F802C08E
:100DB0004CEA050591F800C0BCF1000F31D0146871
:100DC00000202BE04FF0010C0CFA00F3B1F800C04A
:100DD0000CEA03069E4220D183004FF00F0C0CFA60
:100DE00003F7BC4305FA03FC4CEA040491F803C082
:100DF000BCF1280F06D14FF0010C0CFA00FCC2F830
:100E000014C00AE091F803C0BCF1480F05D14FF0BF
:100E1000010C0CFA00FCC2F810C0401C0828D1D309
:100E20001460B1F800C0BCF1FF0F34DD546800203D
:100E30002EE000F1080C4FF0010808FA0CF3B1F8AD
:100E400000C00CEA03069E4221D183004FF00F0C34
:100E50000CFA03F7BC4305FA03FC4CEA040491F8CE
:100E600003C0BCF1280F05D100F1080C08FA0CF8FA
:100E7000C2F8148091F803C0BCF1480F07D100F10B
:100E8000080C4FF0010808FA0CF8C2F81080401C5A
:100E90000828CED35460BDE8F0810000F0B50A46C2
:100EA000002300240021002500F00046B6F1004F89
:100EB00002D11D4EF16901E01B4E7168C0F303457C
:100EC00083B200F44016B6F5401F08D121F07061DE
:100ED000154E766826F07066134F7E6012E000F4BF
:100EE0008016B6F5801F06D1032606FA05F4A14345
:100EF00041F0706106E0460D360103FA06F6B14393
:100F000041F0706122B1460D360103FA06F6314315
:100F100000F00046B6F1004F02D1034EF16101E04E
:100F2000014E7160F0BD000000000140024600204B
:100F300093680B400BB1012000E000207047416135
:100F400070470161704700BFFEE700007CB50546B1
:100F5000EF208DF8000001208DF801001A4800688C
:100F6000000E8DF8020018480068000C8DF8030090
:100F700015480088000A8DF80400134800788DF8A1
:100F8000050007208DF8060000208DF807000F49A6
:100F9000088012E0012006F0EBF90C48008800F40C
:100FA000004050B100200949088069460848FFF711
:100FB000A7F904460CB120467CBD681E80B205002E
:100FC000E8D100BFF8E70000E0120020E4120020A2
:100FD0007427002038B504460121082005F056FA90
:100FE000012C03D148208DF8030003E014B9102030
:100FF0008DF803004FF46070ADF8000003208DF809
:10100000020069460848FFF7BDFE2CB94FF4607135
:101010000548FFF794FF06E0012C04D14FF46071FE
:101020000148FFF78EFF38BD000C014038B504467B
:101030000121082005F02AFA0121084605F026FAC8
:1010400001211248FFF72AFF012C03D148208DF817
:10105000030003E014B910208DF803007820ADF8E8
:10106000000003208DF8020069460948FFF78AFE58
:1010700024B978210648FFF762FF05E0012C03D16F
:1010800078210348FFF75DFF38BD00000002300003
:10109000000C01400EB54FF000094FF01E0A00276A
:1010A000B84600250024002600BFAEE002A801F0EB
:1010B00075F80B2E30D006F067FA064600BF06F032
:1010C00063FA0C28FBD10C2E25D000274FF0000826
:1010D000002500244846411C01F0FF094B490E54ED
:1010E000B9F10B0F04D10B20C8720B264FF0000989
:1010F000464800780A2805D00A2206215046FFF704
:101100001DFE04E0324606215046FFF717FE0AF1A5
:10111000080000F0FF0A6CE03C4800780A2868D01C
:101120001AE0062F16DA3948015D3948405D8142E0
:1011300004D1781CC7B2681CC5B20BE03348005D0F
:1011400033490C39097B884202D10127012501E08E
:1011500000270025601CC4B22C48005D0B28E0D19C
:101160000024002520E0B8F1050F1BDA2748015DB7
:101170002748801D405D814206D108F1010000F042
:10118000FF08681CC5B20DE02048005D20490C39FD
:10119000897C884203D14FF00108012502E04FF01D
:1011A00000080025601CC4B21848005D0B28DAD185
:1011B0000C264FF01E0A4FF000090723802206215B
:1011C0000020FFF7FFFB062F08D111480C38C0782C
:1011D00040F001000E490C39C8700AE0B8F1050F63
:1011E00007D10B480C38C07840F0030008490C398F
:1011F000C87002A801F03EF802A8002164230A4644
:10120000CDE90010084601F017FF4FE7E613002074
:10121000D013002070B506460021084600F084F87F
:1012200000240EE02146002000F07EF8002504E0B6
:10123000002000F09BF8681CC5B2802DF8DB601C14
:10124000C4B2082CEEDB70BD10B505F051FA0020D9
:1012500033490860012006F08BF801203149C1F8BC
:10126000A00106F085F8AE2000F072F8002000F032
:101270006FF8102000F06CF8402000F069F8812031
:1012800000F066F8CF2000F063F8A12000F060F8CD
:10129000C82000F05DF8A62000F05AF8A82000F061
:1012A00057F83F2000F054F8D32000F051F8002008
:1012B00000F04EF8D52000F04BF8802000F048F800
:1012C000D92000F045F8F12000F042F8DA2000F0D3
:1012D0003FF8122000F03CF8DB2000F039F8402005
:1012E00000F036F8202000F033F8022000F030F84B
:1012F0008D2000F02DF8142000F02AF8A42000F032
:1013000027F8A62000F024F8AF2000F021F80020F4
:10131000FFF780FF0021084600F006F810BD00002E
:10132000A00121420000214270B504460D4605F19E
:10133000B001C8B200F00CF8102141EA141000F01E
:1013400007F804F00F0141F0010000F001F870BD52
:1013500070B504460025002003490860204605F0CA
:1013600037FA0546284670BDAC01214270B50446E7
:101370000025012003490860204605F029FA0546AA
:10138000284670BDAC01214270B5002411E0214611
:101390000020FFF7C9FF002507E0074901EBC41152
:1013A000485DFFF7E3FF681CC5B2802DF5DB601CCC
:1013B000C4B2082CEBDB70BD7423002000BF0549CC
:1013C000098801F040010029F9D00249091D08806F
:1013D000704700000048004000BFFEE730B50546FA
:1013E0000C4622460021284600F001F830BD2DE9C8
:1013F000F04105460B4694460027002402E03F02D8
:101400001F43641C042CFAD3604605F003062946EA
:1014100046B1344603E001F8013B401E641C08B1AC
:10142000042CF8D30A4601E080C2001F0428FBD236
:10143000114602E001F8013B401E0028FAD1BDE848
:10144000F08100000EB5152400BF26E002A800F0D0
:10145000A5FE002003E011490854411CC8B206282B
:10146000F9DB0021032000F02FFA00210F20FFF705
:1014700057FC224600216420FFF732FA0120FFF7D3
:101480003DFC02A800F0F6FE02A8002132230A4625
:10149000CDE90010084601F0CFFDD7E7D0130020BA
:1014A000704700001CB511A103C9CDE9000110204F
:1014B00005F00AF905226946302000F021F90522DD
:1014C0006946102000F080F8002406E01DF80400B2
:1014D000A52800D003E0601CC4B2052CF6DB00BFD9
:1014E000052C01D001201CBD0020FCE7A5A5A5A569
:1014F000A500000000B587B001210C2004F0C6FF54
:101500000220ADF8180010208DF81B0003208DF884
:101510001A0006A92748FFF735FC0120ADF818008E
:1015200010208DF81B0003208DF81A0006A9224810
:10153000FFF728FC02211F48FFF703FD01211E4889
:10154000FFF7FFFC0120ADF8180028208DF81B00E4
:1015500006A91848FFF716FC05F046F800211748C1
:1015600005F060F90020ADF804004FF48270ADF88A
:1015700006000020ADF80800ADF80A00ADF80C0038
:101580004FF40070ADF80E003820ADF810000020C8
:10159000ADF812000720ADF8140001A9074805F0C6
:1015A0005BF900200649086001200649C1F8800166
:1015B00007B000BD000C01400008014000300140B0
:1015C00084812142000021422DE9F04107460D4669
:1015D000164600200A490860384605F04BF8804658
:1015E000002405E0FF2005F045F82855601CC4B232
:1015F000B442F7DB0120024908604046BDE8F081B3
:101600008001214270B50446002007490860204649
:1016100005F030F8FF2005F02DF8054601200349BC
:10162000C1F88001284670BD80012142000021429E
:1016300010B500201449086005221449302000F03C
:101640005FF8052212492A2000F05AF801212120D2
:1016500000F074F80121222000F070F81A212420F3
:1016600000F06CF82821252000F068F80F212620D2
:1016700000F064F80E21202000F060F801200549F8
:10168000C1F8840110BD000084812142207C000843
:10169000257C00080080214270B50546102005F029
:1016A00013F800201449086020222946A02000F0E9
:1016B00027F801201149C1F8840100BF0E48843881
:1016C00000680028FAD10720FFF79CFF0446214656
:1016D000272000F033F804F0100028B1FF21E120AA
:1016E00000F02CF8102070BD04F0200008B120207C
:1016F000F9E7FF20F7E700008481214200802142C2
:101700002DE9F04107460C46154600200A490860BD
:10171000384604F0AFFF8046002605E014F8010BC0
:1017200004F0A8FF701CC6B2AE42F7DB01200249EC
:1017300008604046BDE8F0818001214270B5054651
:101740000C46002007490860284604F093FF06462F
:10175000204604F08FFF01200349C1F88001304684
:1017600070BD000080012142000021428CB00024A5
:101770001C2104A8FEF7D6FD51480068039000BF65
:10178000FFF756FF9BE00BA800F008FDFE208DF848
:101790000C004C48C07800F0010010B111208DF809
:1017A0000D004848C07800F0020002284FD145489B
:1017B00040894449088100BFFEF72EFD80B20446EF
:1017C00042F21071884203DA3E480089A042F3D108
:1017D0003C484481408942F2107190FBF1F0394954
:1017E0008874084640894FF47A7190FBF1F00A2121
:1017F00090FBF1F201FB1200C1B23248C174408982
:10180000642190FBF1F00A2190FBF1F201FB120040
:10181000C1B22C48017540890A2190FBF1F090FB80
:10182000F1F201FB1200C1B22648417540890A213C
:1018300090FBF1F201FB1200C1B222488175408990
:1018400000128DF80E001F48807A8DF80F001D4899
:10185000C07800F00400042808D11A48C088000AA3
:101860008DF81000174880798DF8110001208DF84F
:10187000120003A8FFF710FF202814D1002004E075
:10188000002103AA1154411CC8B20628F8DB0D48F8
:10189000408900128DF80E000A48807A8DF80F00FA
:1018A00000200849C8700BA800F0E4FC0BA8002138
:1018B0000B460122CDE90010084601F0BDFB62E7AE
:1018C0001C7C0008C413002038B504460D460820CF
:1018D0000346034A29460090204605F0B9FC38BD6E
:1018E000D80B002070B5002100230F22C47804B368
:1018F000154C246804F4E064C4F5E064210AC1F1E5
:101900000403CA40447804FA03F184781440214364
:1019100009010E4C0678A155047804F01F05012436
:10192000AC4005786D11AD0005F1E025C5F800412A
:1019300009E0047804F01F050124AC40044D06784A
:10194000761145F8264070BD0CED00E000E400E0A3
:1019500080E100E00EB500BF0AE0FFF715FD02A828
:10196000002164230A46CDE90010084601F064FB1B
:10197000F3E7000015481648164817481748184856
:101980001848194819481A481A481B481B481C4847
:101990001C481D481D481E481E481F481F48204817
:1019A00020482148214822482248234823482448E7
:1019B00024482548254826482648274827482848B7
:1019C00028482948294800BF70470000CC7C0008FF
:1019D0002C7C0008307C0008347C0008387C00082F
:1019E0003C7C0008407C0008447C0008487C0008DF
:1019F0004C7C0008507C0008547C0008587C00088F
:101A00005C7C0008607C0008647C0008687C00083E
:101A10006C7C0008707C0008747C0008787C0008EE
:101A20007C7C0008807C0008847C0008887C00089E
:101A30008C7C0008907C0008947C0008987C00084E
:101A40009C7C0008A07C0008A47C0008A87C0008FE
:101A5000AC7C0008B07C0008B47C0008B87C0008AE
:101A6000BC7C0008C07C0008C47C0008C87C00085E
:101A700010B50348006810B101480068804710BDE8
:101A80000413002070B5044600F0C2F80020484955
:101A90000870484908704849087048490860484932
:101AA0000860484908704849087048490870484922
:101AB0000860484908604849086048490870484833
:101AC00000680A21B0FBF1F046490860464800680A
:101AD00058B14648056845B14348066803E0761E9C
:101AE000002028602D1D002EF9D1002040490860FB
:101AF0004049086040490860404908604049086022
:101B000040490860404908604049087002F092FB73
:101B100002F072FC204601F0E1FC208800B170BDAB
:101B2000204602F0C3F8208800B1F8E7204602F012
:101B3000E5F8208800B1F2E7204602F0C9F92088D4
:101B400000B1ECE7204602F0A5FB208800B1E6E7F3
:101B5000204602F0C9FD208800B1E0E7204603F0EE
:101B6000EBF8208800B1DAE7204602F00BF8208875
:101B700000B1D4E7204601F023FE208800B1CEE773
:101B8000204604F049F8208800B1C8E7204603F059
:101B900017F8208800B1C2E7204604F099F82088A1
:101BA00000B1BCE701F0C2FBFFF7E4FE00BFB6E7FF
:101BB000181300201913002060130020B813002010
:101BC000BC130020461300204713002048130020B8
:101BD00054130020581300205C13002068130020C9
:101BE0008C7C0008641300205C7C0008587C000892
:101BF000F8120020FC120020001300200413002023
:101C0000081300200C13002010130020961300204E
:101C10000A4A1168002002E0002204C1401C084A60
:101C200012689042F8D3054A1268054B1B6802EB14
:101C30008302121F034B1A6070470000587C000893
:101C40005C7C0008C013002008480078012800D000
:101C5000704707480078FA2800DBF9E70448007865
:101C6000401C0349087000BFF2E700001913002070
:101C70001813002010B500242E480078012800D049
:101C800010BD00BFFEF706FB044600BF2A480078DF
:101C900028B900BF2046FEF701FB00BFF0E7264849
:101CA0000078401E2449087008460078002805DDA9
:101CB00000BF2046FEF7F2FA00BFE1E71F480078B8
:101CC000002805DD00BF2046FEF7E8FA00BFD7E791
:101CD00002F09CFA1A4908700846007800EB4000B0
:101CE000184951F82000184908600846006817494B
:101CF0000968884205D100BF2046FEF7CFFA00BF31
:101D0000BEE711480068D0F89000401C0E490968F1
:101D1000C1F890000E480068401C0D4908604FF063
:101D200080500C49086000BF2046FEF7B7FA00BF9C
:101D300000BFA5E71913002018130020601300202E
:101D400047130020D4400020BC130020B81300200B
:101D50008C13002004ED00E02DE9F04104460E460E
:101D60001546002729480078002804DD42F6E16086
:101D70002880BDE8F0811CB945F6C3502880F8E7FB
:101D800000BF00BF00BFFEF785FA074600BF00BFD7
:101D90001F480078401C1E49087000BF00BF38462D
:101DA000FEF77CFA00BF00BF00BF1A4820606660E3
:101DB0000020206284F82500A062402084F82400DE
:101DC00004F1080002F03BF9204602F069F81248DD
:101DD0000088401C1049088000BF00BF00BFFEF70C
:101DE00059FA074600BF00BF09480078401E08495D
:101DF000087000BF00BF3846FEF750FA00BF00BFB2
:101E000000BF0020288000BFB3E7000018130020A7
:101E1000601300204D555458441300202DE9F0471D
:101E200088B00546894690461C46109E4FF0000A31
:101E3000AB480078002805DD46F2AE10308008B0CF
:101E4000BDE8F0871DB945F6C3503080F7E7B8F11B
:101E5000000F03D0B8F5004F02D100E000BF03E04F
:101E600045F625603080EAE700BF9E492868884231
:101E700003D045F6C4503080E1E70CB1002020606B
:101E800000BF00BFFEF706FA824600BF00BF95F80C
:101E90002500C0B99448006828629348006890F80B
:101EA000370085F82400012085F825000CB1A86AC8
:101EB000206000BF00BF5046FEF7F0F900BF00BF32
:101EC00000203080BBE78849286A0968884212D11F
:101ED00095F82500401C85F825000CB1A86A206003
:101EE00000BF00BF5046FEF7D9F900BF00BF45F262
:101EF00082703080A3E708F4004050B100BF00BFFB
:101F00005046FEF7CBF900BF00BF46F2B01030805C
:101F100095E77648007800280ADD00BF00BF5046EC
:101F2000FEF7BCF900BF00BF46F66350308086E77D
:101F300000BF6E480078401C6C49087000BF00BFAD
:101F40005046FEF7ABF900BF00BF00BF2F6A97F8FD
:101F500037006549096891F83710884260DD97F8C5
:101F6000360008282AD2DFE800F004151E1F1716D5
:101F70002021384602F0C8FA5B48006890F8370024
:101F800087F8370097F8370002F060F9384602F01A
:101F90005BFA44E000BF00BF5348006890F8370088
:101FA00087F837003BE000BF00BF00BF4E48006825
:101FB00090F83710384602F01FF830E000BF00BF3D
:101FC00000BFFEF767F9824600BF00BF47480078B0
:101FD000401E4649087008460078A0B94448008869
:101FE000002809DD00BF00BF5046FEF757F900BFCB
:101FF00000BF02F0B7FA0DE000BF00BF5046FEF789
:102000004DF900BF06E000BF00BF5046FEF746F99D
:1020100000BF00BF00BF46F62D6030800FE700BF55
:102020004B4604222946684601F05EFF00BF00BF10
:1020300000BFFEF72FF9824600BF00BF2B48007893
:10204000401E2A49087000BF00BF5046FEF726F91F
:1020500000BF00BF00BF00F04DF800BF00BFFEF79B
:1020600019F9824600BF00BF1F48006890F835008C
:1020700030B101280CD002281AD0032821D110E059
:102080001CB119480068006C2060002030801CE002
:102090001CB115480068006C206046F2A910308021
:1020A00013E00CB10020206047F2D92030800CE012
:1020B0001CB10D480068006C206045F6C2503080AD
:1020C00003E046F62E60308000BF00BF00BF00BFB7
:1020D0005046FEF7E3F800BF00BF00BFAFE60000C8
:1020E000181300204D555458B813002060130020D9
:1020F0002413002010B5002420480078002800DDBB
:1021000010BD1F480078002800DDF9E700BFFEF78A
:10211000C1F8044600BF02F079F81A490870084671
:10212000007800EB4000184951F82000174908607A
:102130000846006816490968884205D100BF204654
:10214000FEF7ACF800BFDBE710480068D0F890005D
:10215000401C0E490968C1F890000E480068401CF8
:102160000C4908604FF080500B49086000BF2046C2
:10217000FEF794F800BF00BFC2E70000181300206C
:102180006013002047130020D4400020BC1300201F
:10219000B81300208C13002004ED00E070B5044655
:1021A000002518480078002803DD46F6625020809C
:1021B00070BD15480078012803D045F6896020805D
:1021C000F6E712480078FA2803DB45F20920208060
:1021D000EEE700BF00BFFEF75DF8054600BF00BF99
:1021E0000A480078401C0949087002F0E9F900BF6C
:1021F00000BF2846FEF752F800BF00BF0020208035
:1022000000BFD5E718130020191300206013002029
:102210002DE9F04105460C461646002700BF00BFD9
:10222000FEF738F8074600BF00BF012D03D000209D
:102230000D49087002E001200B49087014B10B48E9
:10224000046006E00A4800680A21B0FBF1F0074983
:10225000086000BF00BF3846FEF720F800BF00BF8F
:1022600000203080BDE8F081681300206413002056
:102270008C7C000870B504460025204800780028B2
:1022800003DD46F66550208070BD1D4800780128AA
:1022900003D045F689602080F6E71A48007818B91F
:1022A00046F664502080EFE700BF00BFFDF7F2FF65
:1022B000054600BF00BF13480078401E1149087052
:1022C0000846007800280ADD00BF00BF2846FDF759
:1022D000E5FF00BF00BF46F663502080D4E702F060
:1022E0007DF900BF00BF2846FDF7D8FF00BF00BF43
:1022F000FFF700FF0020208000BFC5E71813002073
:10230000191300206013002010B50446124800780D
:10231000E8B901F07BFF11490870084600781049C0
:1023200008700E48007800EB40000E4951F820007C
:102330000D490860084600680C49086001200649FC
:102340000870FEF749F843F69920208002E045F630
:102350008A60208010BD0000191300204713002060
:1023600046130020D4400020BC130020B8130020E6
:102370002DE9F04107464FF0000800BF00BFFDF710
:1023800089FF804600BF00BF00203D4908603D49ED
:1023900008803D4908803D4908603D4908603D4945
:1023A00008603D4908603D49088100BF00BF4046C4
:1023B000FDF774FF00BF00BF00BF00BFFDF76AFF5D
:1023C000804600BF00BF3648046800BF00BF4046DB
:1023D000FDF764FF00BF00BF21E000BF00BFFDF7B5
:1023E00059FF804600BF00BF00207834E0632060C2
:1023F0002063A061A082E0826062A062FEF7DCFA46
:102400002062783C04F164060020B081D4F8BC401E
:1024100000BF00BF4046FDF741FF00BF00BF002CDA
:10242000DBD100BF00BFFDF735FF804600BF00BF16
:102430001C48056800BF00BF4046FDF72FFF00BFE6
:1024400000BF12E000BF00BFFDF724FF804600BFC1
:1024500000BF05F120060020B081AD6900BF00BFBC
:102460004046FDF71BFF00BF00BF002DEAD103F07F
:10247000AFFA03F029FD00203880BDE8F0810000AC
:102480002C13002026130020761300208813002030
:102490009C130020A813002058130020C8400020DF
:1024A000901300204C130020F8B50446002669461E
:1024B000324800F0C1FCBDF8000018B1BDF80000C2
:1024C0002080F8BD6A460021022000F029FDBDF8F9
:1024D000000018B1BDF800002080F2E700BF00BF87
:1024E000FDF7D8FE064600BF00BF00202449086063
:1024F00000BF00BF3046FDF7D1FE00BF00BF002582
:102500002048006820490968884205D91D480068AC
:102510001D490968B0FBF1F525B91A4800680A2180
:10252000B0FBF1F56A460021284600F0F9FC694647
:10253000124800F063FABDF8000018B1BDF80000C1
:102540002080BEE700BF00BFFDF7A4FE064600BF27
:1025500000BF00200D490860094800680C49086068
:1025600001200C49087000BF00BF3046FDF796FE01
:1025700000BF00BF0020208000BFA2E75C45002014
:10258000781300208C7C0008747C000888130020DD
:102590007C1300208413002010B50348006810B19C
:1025A00001480068804710BD081300202DE9FF4F47
:1025B00087B004469046DDE91BA5DDE91496179F18
:1025C0000020039087480078002805DD47F24A1074
:1025D00028800BB0BDE8F08F1CB947F2AD10288001
:1025E000F7E7B8F1000F03D147F24F102880F0E76A
:1025F0001EB946F62F602880EBE77B4800688742CB
:1026000003D246F630602880E3E71698B84203D339
:1026100046F631602880DCE7B9F1400F03D346F27B
:1026200073202880D5E7B9F1000F06D16F488442A6
:1026300003D046F273202880CBE7B9F13F0F06D1D3
:102640006B48844203D046F273202880C1E72046BD
:1026500002F082FB002028800AF0010090B10AF00D
:10266000020078B105960020069008E00021059848
:1026700001600598001D05900698401C069006987C
:10268000B842F3D3169806EB80000490CDE9007AA7
:1026900032464046049B0A9900F06EFB0590C4F850
:1026A00028800A98E0620898206284F8379005989C
:1026B00020600498A06019986065199818B94D4871
:1026C0000068A06501E01998A0651A9860606662CC
:1026D000A763A4F83CA04FF0000B08E0002104F130
:1026E0007C0040F82B100BF1010000F0FF0BBBF158
:1026F000000FF3D004F16400189901F04BFB204661
:1027000000F082F800BF00BF00BFFDF7C3FD0390DB
:1027100000BF00BF38480078401C3749087000BF30
:1027200000BF0398FDF7BAFD00BF00BF00BF94F8DB
:10273000370001F08BFD204601F0A6FE204602F096
:10274000C1FA2E480088401C2C4908802C4800788B
:1027500001282DD000BF00BF00BFFDF79BFD0390F7
:1027600000BF00BF24480078401E23490870084677
:102770000078A0B923480088002809DD00BF00BF09
:102780000398FDF78BFD00BF00BF01F0EBFE0DE0ED
:1027900000BF00BF0398FDF781FD00BF06E000BF4A
:1027A00000BF0398FDF77AFD00BF00BF00BF10E730
:1027B00000BF00BF00BFFDF76DFD039000BF00BF6D
:1027C0000D480078401E0C49087000BF00BF0398F8
:1027D000FDF764FD00BF00BF00BFFFF78BFC00BF2B
:1027E000F7E6000018130020887C00080440002051
:1027F000403F002064130020601300209413002049
:10280000191300202413002010B504460348006863
:1028100018B1204601490968884710BDF812002008
:1028200070B504460D46002667480078002803DD91
:1028300047F24E10288070BD6448844203D147F2AD
:102840004C102880F7E76248844203D147F24D10CC
:102850002880F0E77CB900BF00BFFDF71BFD0646EE
:1028600000BF00BF5B48046800BF00BF3046FDF7F3
:1028700015FD00BF00BF00BF00BF00BFFDF70AFD90
:10288000064600BF00BF54480078401C52490870FB
:1028900000BF00BF3046FDF701FD00BF00BF00BF15
:1028A00094F8360008282DD2DFE800F004090E1055
:1028B000080A0F11204601F027FE54E053E000BF44
:1028C000204603F069F84EE000BF00BF00BF20467D
:1028D00003F062F894F83400082810D2DFE800F022
:1028E00004070508090A0B0600BF00BF08E000BF87
:1028F00000BF00BF00BF204601F0D9FB00E000BFD1
:1029000000BF30E000BF00BF00BFFDF7C3FC0646BC
:1029100000BF00BF30480078401E2F4908700846AD
:102920000078A0B92D480088002809DD00BF00BF4D
:102930003046FDF7B3FC00BF00BF01F013FE0DE011
:1029400000BF00BF3046FDF7A9FC00BF06E000BF96
:1029500000BF3046FDF7A2FC00BF00BF00BF46F637
:102960002D60288067E700BF04F1640001F0F0F9F2
:10297000204600F037F8204602F0BCF918480088DD
:10298000401E17490880204602F0E6F9FF2084F82F
:10299000360000BF00BF00BFFDF77CFC064600BF4D
:1029A00000BF0D480078401E0B49087000BF00BFF3
:1029B0003046FDF773FC00BF00BF00BF0020288039
:1029C000FFF798FB00BF36E718130020403F0020B8
:1029D00004400020B81300206013002024130020BE
:1029E0009413002010B504460348006818B120462F
:1029F00001490968884710BDFC1200207FB50446D4
:102A00000D46002600BF00BFFDF744FC064600BF90
:102A100000BF1CB11548006884420AD100BF00BF46
:102A20003046FDF73BFC00BF00BF47F2571028803F
:102A30007FBD00BF00BF3046FDF730FC00BF00BFC8
:102A40000B48007800280BDD002000900190034621
:102A500002462146CDE90205064800F0E9FEE7E717
:102A60002946204602F0F0FA00BFE1E7B813002043
:102A7000181300205452455310B50446034800680B
:102A800018B1204601490968884710BD001300208D
:102A90002DE9F04780460E4614461D464FF00009CA
:102AA0007D480078002805DD46F2AE102880002021
:102AB000BDE8F0871EB1B6F5004F02D100E000BFBF
:102AC00004E045F6256028800020F1E700BF0CB146
:102AD0000020206000BF00BFFDF7DCFB814600BF87
:102AE00000BF6E480068406CA8B36C480068406C3A
:102AF000401E6A490968486468480068476C1CB110
:102B000066480068006C2060FDF756FF634909685D
:102B1000096C401A61490968C1F8A4005F4800685F
:102B2000D0F8A8005D490968D1F8A410884207D2FE
:102B30005A480068D0F8A40058490968C1F8A800AC
:102B400000BF00BF4846FDF7A9FB00BF00BF002043
:102B500028803846ACE7FFE706F4004058B100BFD4
:102B600000BF4846FDF79AFB00BF00BF46F2B01019
:102B7000288000209CE74A48007800280BDD00BF31
:102B800000BF4846FDF78AFB00BF00BF46F6635012
:102B9000288000208CE700BF41480078401C404955
:102BA000087000BF00BF4846FDF778FB00BF00BFBC
:102BB00000BF434607220021084601F095F900BFF7
:102BC00000BF00BFFDF766FB814600BF00BF344871
:102BD0000078401E3249087000BF00BF4846FDF72C
:102BE0005DFB00BF00BF00BFFFF784FA00BF00BF5E
:102BF000FDF750FB814600BF00BF2848006890F8F1
:102C0000350020B1012826D0032834D12CE0FCB1B6
:102C100022480068006C2060FDF7CEFE1F4909685D
:102C2000096C401A1D490968C1F8A4001B480068D6
:102C3000D0F8A80019490968D1F8A410884207D231
:102C400016480068D0F8A40014490968C1F8A80023
:102C50000020288013E01CB110480068006C206040
:102C600046F2A91028800AE00CB10020206047F24B
:102C7000D920288003E046F62E60288000BF00BFE0
:102C800006480068476C00BF00BF4846FDF706FBDA
:102C900000BF00BF38460BE718130020B813002010
:102CA000601300202DE9F04705460E4617461C46E6
:102CB0004FF0000A2E480078002804DD47F2591032
:102CC0002080BDE8F0871EB946F2D5202080F8E7C5
:102CD0001FB946F2D5202080F3E700BF00BFFDF703
:102CE000D9FA824600BF00BF0DB92248056828689E
:102CF00068B900BF00BF5046FDF7D0FA00BF00BF63
:102D000000203060386047F252102080D9E795F8F3
:102D10003C0000F0010068B900BF00BF5046FDF75D
:102D2000BDFA00BF00BF00203060386047F2541089
:102D30002080C6E700BF00BF5046FDF7AFFA00BFD6
:102D400000BF4FF00008D5F8249003E009F1040912
:102D500008F10108D9F800000028F7D0C6F8008073
:102D6000A86BA0EB080038600020208000BFA8E717
:102D700018130020B8130020F0B50446DDE905560D
:102D800002EB85004FF0807C071F3846C7F800C073
:102D9000071F38463C60DFF89CC0071F3846C7F85D
:102DA00000C04FF0123C071F3846C7F800C04FF074
:102DB000033C071F3846C7F800C04FF0023C071F0E
:102DC0003846C7F800C0071F38463B60071F384623
:102DD00039604FF0113C071F3846C7F800C04FF06C
:102DE000103C071F3846C7F800C04FF0093C071FCA
:102DF0003846C7F800C04FF0083C071F3846C7F8F0
:102E000000C04FF0073C071F3846C7F800C04FF01E
:102E1000063C071F3846C7F800C04FF0053C071FA7
:102E20003846C7F800C04FF0043C071F3846C7F8C3
:102E300000C0F0BD895100087FB505460C46124818
:102E4000854203D147F25B1020807FBD0F48854249
:102E500003D147F25C102080F7E70D480078002886
:102E60000BDD002000900190034602462946CDE983
:102E70000204084800F0DCFCE7E72146284602F09F
:102E8000F1FB00BFE1E70000403F002004400020CC
:102E9000181300205453555310B51D48006810B145
:102EA0001B4800688047FDF787FD04461948006805
:102EB00019490968884215D016480068D0F898006A
:102EC000201A14490968C1F8940012480068D0F823
:102ED0009C0010490968D1F8941008440D4909680C
:102EE000C1F89C000C480068C0F898400948006888
:102EF000D0F8B40009490968884205D2074800683B
:102F000004490968C1F8B40000200449086010BDF4
:102F10000C130020B8130020BC1300205C13002009
:102F20002DE9F04105460E46144600273F4800783B
:102F3000002804DD47F275202080BDE8F0813C4880
:102F40000078002803DD46F663502080F5E736B1AF
:102F5000022E05D0042E0AD0082E09D101E000BFB0
:102F600000BF1DB947F27E202080E6E704E003E0C1
:102F700045F625602080E0E700BF00BF00BF00BF2E
:102F8000FDF788F9074600BF00BF29480078401CBC
:102F90002749087000BF00BF3846FDF77FF900BF22
:102FA00000BF00BF01202349096881F8360023468D
:102FB000324629461F48006802F010FC2088A8B15C
:102FC00000BF00BF00BFFDF765F9074600BF00BFA7
:102FD00017480078401E1649087000BF00BF3846E9
:102FE000FDF75CF900BF00BF00BFA6E7114800680D
:102FF00001F08AFA00BF00BF00BFFDF74BF907469A
:1030000000BF00BF0A480078401E0949087000BF91
:1030100000BF3846FDF742F900BF00BF00BFFFF711
:1030200069F80020208000BF87E700001813002007
:1030300060130020B81300202DE9FF5F05460E46FF
:1030400017469846DDE90EA40020009072480078EB
:10305000002804DD47F275202080BDE8FF9F6F48FF
:103060000078002803DD46F663502080F5E70AF07B
:103070000E0BBBF1000F09D0BBF1020F07D0BBF163
:10308000040F10D0BBF1080F0ED101E000BF00BF4C
:10309000B8F1000F06D12FB926B91DB947F27E202D
:1030A0002080DAE704E003E045F625602080D4E7DD
:1030B00000BF2AF01E0008B1012000E000200390AC
:1030C0000398012803D145F625602080C5E7CAF39F
:1030D000001002900298C0B9B8F57A7F03D347F286
:1030E0007B202080B9E73B2F03DD47F27A20208048
:1030F000B3E73B2E03DD47F279202080ADE7632D57
:1031000012DD47F278202080A7E742F20F70864256
:1031100003DD47F2792020809FE7B5F57A7F03DB56
:1031200047F27820208098E73D48D0F800904FF48F
:10313000FA70B0FBF9F0404400FB09F04FF47A71EB
:10314000B0FBF1F14FF461606843C6EB061200EB8F
:103150008200384400FB091001900198002856D0E5
:1031600000BF00BF00BFFDF795F8009000BF00BF93
:103170002A480078401C2949087000BF00BF009809
:10318000FDF78CF800BF00BF00BF0120254909688A
:1031900081F8360023465A4622480199006802F019
:1031A0001DFB2088A8B100BF00BF00BFFDF772F86B
:1031B000009000BF00BF19480078401E17490870F2
:1031C00000BF00BF0098FDF769F800BF00BF00BF57
:1031D00043E71448006801F097F900BF00BF00BF43
:1031E000FDF758F8009000BF00BF0C480078401E63
:1031F0000A49087000BF00BF0098FDF74FF800BFF4
:1032000000BF00BFFEF776FF0020208002E047F2FB
:103210007E20208000BF20E71813002060130020CC
:103220008C7C0008B813002010B586B000F01EF8A2
:10323000FDF7C2FB044605A800210091CDE9011469
:1032400003900748007800EB4000064A02EB80013B
:1032500000231A46044800F0EBFA06B010BD000047
:1032600046130020D44000205449434B10B5034876
:10327000006810B101480068804710BD101300209D
:1032800038B505460C4627480078002804DD47F28B
:1032900043302080002038BD25B947F242302080DD
:1032A0000020F8E720492868884204D045F6C45039
:1032B00020800020EFE76846FEF770FF95F82A00AF
:1032C00000B3012812D0022802D0032822D10EE038
:1032D000284602F06BFE0021284602F08DFD68466C
:1032E000FEF7C8FF002020800120D4E700BF0021A6
:1032F000284602F081FD6846FEF7BCFF00202080D2
:103300000120C8E76846FEF7B5FF47F23D30208050
:103310000020C0E76846FEF7ADFF47F2413020804D
:103320000020B8E718130020544D522024482548A7
:103330002548264826482748274828482848294815
:1033400029482A482A482B482B482C482C482D48E5
:103350002D482E482E482F482F48304830483148B5
:103360003148324832483348334834483448354885
:103370003548364836483748374838483848394855
:1033800039483A483A483B483B483C483C483D4825
:103390003D483E483E483F483F48404840484148F5
:1033A00041484248424843484348444844484548C5
:1033B0004548464846484748474800BF70470000D0
:1033C000D07C0008387E0008D27C0008D37C00083E
:1033D000D47C0008D87C0008DC7C0008D97C00087C
:1033E000047D0008057D0008067D0008087D0008B2
:1033F0000A7D00080C7D00080E7D0008107D000885
:10340000307D0008327D0008347D0008367D0008DC
:10341000387D00083A7D00083C7D0008687D000882
:10342000697D00086A7D00086C7D00086E7D0008DB
:103430006F7D0008707D0008727D0008747D0008B3
:10344000767D0008787D00087A7D00087C7D000884
:10345000AC7D0008AD7D0008AE7D0008AF7D0008A2
:10346000B07D0008B27D0008B47D0008DC7D000856
:10347000DD7D0008DE7D0008DF7D0008E07D0008BE
:10348000E27D0008E47D0008E87D0008E97D000891
:10349000EA7D0008EB7D0008EC7D0008ED7D00086A
:1034A000EE7D0008EF7D0008F07D0008F27D000849
:1034B000F37D0008F47D0008F67D0008F87D000823
:1034C000F97D0008FC7D0008307E0008317E000890
:1034D000327E0008347E0008367E00080021034A50
:1034E0001160034A118001807047000030130020F2
:1034F000341300202DE9F04F85B0044689469246EA
:103500009B46DDF838800020009000BF00BFFCF72C
:10351000C1FE009000BF00BFBAF1000F0AD0BAF19F
:10352000010F0DD0BAF5004F05D06FF400405044A4
:1035300060B906E000BF206A40EA0900206214E09A
:1035400000BF206A20EA090020620EE000BF00BF31
:103550000098FCF7A3FE00BF00BF45F62560A8F861
:103560000000002005B0BDE8F08F00BFC4F824B013
:1035700004F1080001900198008958B900BF00BF0C
:103580000098FCF78BFE00BF00BF0020A8F80000E9
:10359000206AE7E700BF61480078401C5F49087077
:1035A00000BF00BF0098FCF779FE00BF00BF00BF5E
:1035B00001980768BD687FE07868029095F88800F8
:1035C00000F00F0003900398012821D002282ED08C
:1035D000042802D0082836D10EE0206AD5F88010E1
:1035E00000EA0106D5F88000B04204D15A463146BF
:1035F000284600F097F859E0206AD5F8801000EAD4
:10360000010626B15A463146284600F08BF84DE0B7
:10361000D5F88000216A20EA0106D5F88000B04282
:1036200004D15A463146284600F07CF83EE0D5F8F1
:103630008000216A20EA010626B15A463146284612
:1036400000F070F832E000BF00BF00BFFCF722FEC0
:10365000009000BF00BF31480078401E2F4908701D
:1036600008460078A0B92E480088002809DD00BF70
:1036700000BF0098FCF712FE00BF00BF00F072FF11
:103680000DE000BF00BF0098FCF708FE00BF06E099
:1036900000BF00BF0098FCF701FE00BF00BF00BFE5
:1036A00043F6FF20A8F8000000205BE700BF029F60
:1036B0000FB1BD6800E00025002D7FF47DAF00BF95
:1036C00000BF00BFFCF7E6FD009000BF00BF13483D
:1036D0000078401E1149087000BF00BF0098FCF739
:1036E000DDFD00BF00BF00BF0AF4004008B9FEF7CF
:1036F00001FD00BF00BFFCF7CDFD009000BF00BF83
:10370000206A049000BF00BF0098FCF7C7FD00BF0F
:1037100000BF0020A8F80000049823E760130020F1
:103720002413002070B504460E4615463434266531
:10373000002060702070E560A078343C082816D224
:10374000DFE800F0040508090706101100BF00BFFC
:1037500000BF0DE000BF204601F068FC002084F8A7
:10376000360005E000BF042084F8360000E000BF0A
:1037700000BF204600F09BFC70BD0000002400BF8D
:1037800019E000BF00BFFCF785FD044600BF00BF85
:1037900009480068401C0849086008480068401C47
:1037A0000649086000BF00BF2046FCF777FD00BF58
:1037B00000BFFEF75DF9E4E7141300207813002042
:1037C00010B58AB0044600200E4908600B20002185
:1037D0000591CDE90704069108460B4909680B4A93
:1037E00012680B4B1B68CDE90132CDE903103F2075
:1037F0000023084A08A100900C48FEF7D7FE0AB043
:1038000010BD000014130020347C0008307C000838
:103810002C7C00087D37000875432F4F532D4949F4
:10382000492049646C65205461736B00403F00205F
:103830002DE9F84F04460D4616461F46DDE90BAB51
:10384000DDF82890DDF834800020009000BF00BF34
:10385000FCF720FD009000BF00BF2B4800882B49DB
:10386000098888423EDA28480088401C264908809A
:10387000274800880988884203DA234800882449B9
:103880000880244800680460224800688560214858
:103890000068C6601F48006807821E480068C0F8BC
:1038A00014901C480068A0F818A01A480068C0F8D6
:1038B0001CB0184800684068164908600120164985
:1038C0000881164808604860002000F0BFFC1448DA
:1038D000007818B112480078124908700020A8F842
:1038E000000008E010480088401C0F49088044F29E
:1038F0005360A8F8000000BF00BF0098FCF7CEFCA2
:1039000000BF00BFBDE8F88F24130020407C0008F2
:10391000261300201C130020D44000200440002067
:103920004613002048130020281300203EB55948B4
:1039300000680068584A811A904279D00FDC5749D4
:10394000084400283ED056490844A8B155490844C7
:10395000002860D05449084400286AD13FE0534809
:103960000844002850D052490844002862D05149E8
:1039700008440028F1D110E002A8464D00902D68BF
:10398000EB69444D2D682A8B424D2D686969414D84
:103990002D68A868FFF7AEFD7AE002A93D480068EF
:1039A000C0693C4DCDE900012D682B8B394D2D6848
:1039B0002A8A384D2D68E968364D2D68A86800F0D0
:1039C00075FC65E0334B1B68DA69324B1B68198B59
:1039D000304B1B68986802AB00F092FE58E002A9D9
:1039E0002C480068C0692B4DCDE900012D682B8B58
:1039F000284D2D682A8A274D2D68E968254D2D68A8
:103A0000A86801F00DFA43E022490968886802A914
:103A100001F01AFB3CE01F4B1B68DA691D4B1B6869
:103A2000198B1C4B1B68986802AB01F0B9FB2FE0A7
:103A300007E02CE017490968886802A901F012FE26
:103A400026E01D49097801EB41011C4A02EB810087
:103A500000F0E2FD0F48006802AB0021C26918487F
:103A600001F09EFB17480068401E16490860084692
:103A7000006858B9144800680860FCF79DFF0446C8
:103A800002AB22460021114801F08AFB00E000BF92
:103A900000BF3EBD201300205449434BADBAB2BE17
:103AA0000DF90BFAF2F8F7FF0006F6FF00F7FDF745
:103AB00000FFEFFF03FE0FFE48130020D44000205C
:103AC00098440020B4130020B01300205C4500206F
:103AD000002700BF4CE0002648E000BF00BFFCF715
:103AE000D9FB074600BF00BF2248008888B90020E4
:103AF000214908810860486000F0BAFB00BF00BFA0
:103B00003846FCF7CBFB00BF00BFFEF7F3FA0126F7
:103B10002CE000BF00BF3846FCF7C0FB00BF00BF71
:103B2000FCF74AFF0546FFF701FFFCF745FF441B82
:103B300012480068A04201D21048046000BF00BFD4
:103B4000FCF7A8FB074600BF00BF0D4800684068AF
:103B50000B49086007480088401E0649088000BFDE
:103B600000BF3846FCF79AFB00BF00BF002EB4D060
:103B7000B1E7000024130020D44000202C130020C3
:103B800020130020F0B589B0054600203149088097
:103B90003148006820B944F25260288009B0F0BD75
:103BA0002E480088022803DA44F254602880F5E7A2
:103BB00000202B4908602848046826462036002744
:103BC0000CE0284820600020A060E0602082606156
:103BD0002083666020342036781C87B21F48008816
:103BE0008742EEDB203C1C48066866601E48066083
:103BF0001E48066000201E4908801E4908801E4895
:103C0000006818B944F255602880C7E71B4800686F
:103C10001B490968884203D244F256602880BDE7F8
:103C2000032000210591CDE907050691134800689E
:103C3000144A1268104B1B68CDE90301CDE901322B
:103C400000910B46104A11A11748FEF7AFFC00BFC8
:103C5000A4E70000281300203C7C0008407C0008FA
:103C60002C1300204E4F4E451C1300202013002023
:103C70002413002026130020487C0008507C0008F4
:103C8000887C00084C7C0008D13A000875432F4F0F
:103C9000532D494949204953522051756575652076
:103CA0005461736B00000000044000200021034AAF
:103CB0001160034A11800180704700003813002012
:103CC0003C13002070B502460B46104611461031D9
:103CD0005E1EB5B2002408E0016000264660068141
:103CE000C66010301031661CB4B2AC42F4DB002662
:103CF000066046600681C66070BD000010B50446CF
:103D00001048006818B945F21E70208010BD0E489A
:103D1000008818B945F21D702080F7E70A4801882D
:103D200008480068FFF7CEFF0648006807490860AA
:103D30000548008888800020C8800881208000BF56
:103D4000E4E700006C7C0008647C0008C8400020A8
:103D500010B5014648894B89002B17DD0A680C4BCA
:103D60001B6813600A4C4B6823602346DB884C8930
:103D70001B1B074CE38023469B884C892344044C3F
:103D8000A38000234B818B810B604B6010BD000032
:103D9000C84000200181002242818281026042608D
:103DA000704700002DE9F0410D46DDE90674B0F8DA
:103DB0000AC0B0F80880C44505DB46F2935CA4F85D
:103DC00000C0BDE8F081DFF8D4C0BCF804C0BCF18D
:103DD000000F04D145F21D7CA4F800C0F1E7DFF824
:103DE000BCC0DCF80010DFF8B480D1F800C0C8F81F
:103DF00000C0C446BCF804C0ACF1010CA8F804C073
:103E0000C446BCF806C00CF1010CA8F806C0C446B4
:103E1000BCF808C0B8F80680C44507DADFF87CC0F3
:103E2000BCF806C0DFF87480A8F808C0B0F80AC073
:103E3000BCF1000F06D1016041604FF0010CA0F809
:103E40000AC017E003F0100CBCF1000F07D10668A0
:103E500031604FF0000CC1F800C0016004E0D0F800
:103E600004C0C1F800C04160B0F80AC00CF1010CF8
:103E7000A0F80AC0B0F80CC0B0F80A80C44503DA54
:103E8000B0F80AC0A0F80CC04D600A81CF604FF0B6
:103E9000000CA4F800C000BF93E70000C840002059
:103EA00009A1C161002141610849096811B90021D6
:103EB000816105E005490968816104490968486133
:103EC00002490860704700002000000040130020F5
:103ED0000021034A1160034A1180018070470000ED
:103EE00040130020441300202DE9F04105460C4604
:103EF00016461F461548006880F8346000201349B4
:103F0000096881F8350039461048006800F0BEFEA7
:103F10006CB104F10808EC60012229460B480068E6
:103F200000F016F82946404600F08EF806E0002022
:103F300006490968C8870549096808630348016894
:103F4000204600F019F8BDE8F0810000B813002009
:103F500010B5C287016300230AE000244C600C60A6
:103F60000C614C610C83CC61886020315C1CA3B275
:103F70009342F2DB10BD000030B548B14568C1F88E
:103F8000C05000F10804226893681D6AC56113E0FF
:103F900091F83450022D02D0072D08D103E007A577
:103FA000C1F8C05007E007A5C1F8C05003E008A55C
:103FB000C1F8C05000BF00BF30BD00005461736B3A
:103FC000205100005461736B2053656D00000000A8
:103FD0002000000030B507A5C1F8C05000F108046A
:103FE00022681AB193681D6AC56101E001A5C56127
:103FF00030BD0000200000002DE9F04304460F46CC
:1040000084F83770256BB4F83E8013E0D5F80C9037
:1040100009F108063089012807D92946304600F001
:104020005EF82946304600F00FF82035A8F101006F
:104030001FFA80F8B8F1000FE8D1BDE8F083002145
:104040000160416001817047F0B58E6896F8375085
:1040500007893FB90127078100274F600F60016082
:10406000416023E007897F1C0781026806E09468AD
:1040700094F83770AF4200DD02E05268002AF6D1B2
:1040800000BF32B900274F6043680B605960416040
:104090000CE017682FB9116000270F604A600160BB
:1040A00004E013680B604A6059601160F0BD2DE9AF
:1040B000F0410446256BE68F0AE0D5F80C8008F144
:1040C00008072946384600F00AF82035701E86B2E7
:1040D000002EF2DC0020E0872063BDE8F08110B5FF
:1040E0000489012C03D100240460446011E00C68B1
:1040F00024B94A680024146002600AE04C6824B9BC
:104100000B6800245C60436003E00B684A685A60F7
:1041100013600489641E048100244C600C6010BD8F
:104120002DE9F84306460C4617469846089D94F834
:104130003600082850D2DFE800F004050809060719
:104140002B2C00BF00BF00BF47E000BF94F8340035
:10415000032807D143463A4621463046009500F0F1
:104160003FF803E0E765A4F86080256436B1204697
:10417000FFF79DFF21463046FFF72CFF204600F059
:1041800055FF00203434A070607004F8340924E036
:1041900000BF94F83400032807D143463A4621462D
:1041A0003046009500F01CF803E0E765A4F8608055
:1041B0002564204601F0F0FB36B12046FFF777FF7B
:1041C00021463046FFF706FF04203434A07000205B
:1041D000607004F8340900E000BF00BFBDE8F88358
:1041E000F0B50446059E086BCD8F0AE0C768A7426C
:1041F00004D1046142610383C66104E020306F1E74
:10420000BDB2002DF2DC00BFF0BD000070B500258E
:10421000074C03E005F12000C5B2241D20680028EA
:10422000F8D02068FCF741F82844C5B2284670BD94
:10423000F0120020002004E00021034A42F8201080
:10424000401C0228F8D37047F012002030B5420914
:1042500000F01F030121C3F11F04A140034C54F8D7
:1042600022400C43014D45F8224030BDF0120020A1
:1042700030B5420900F01F030121C3F11F04A14022
:10428000034C54F822408C43014D45F8224030BD88
:10429000F01200200021034A1160034A11800180BE
:1042A000704700004C130020501300202DE9F04F00
:1042B00085B007468A4693461C460020029000BF00
:1042C00000BF00BFFBF7E6FF029000BF00BF4848F9
:1042D0000078401C4649087000BF00BF0298FBF7F9
:1042E000DDFF00BF00BF00BF07F1080630890028CE
:1042F00042D104F0100010B94FF0000801E04FF077
:104300001008DDE90E0143465A46CDE90001514649
:1043100007F12000FFF746FD00BF00BF00BFFBF71D
:10432000B9FF029000BF00BF31480078401E3049FD
:10433000087008460078A0B92E480088002809DDDA
:1043400000BF00BF0298FBF7A9FF00BF00BF00F04D
:1043500009F90DE000BF00BF0298FBF79FFF00BF07
:1043600006E000BF00BF0298FBF798FF00BF00BF48
:1043700000BF05B0BDE8F08F04F4007008B13589C6
:1043800000E00125D6F8009011E0D9F8080003906C
:10439000D9F8040004900E985B46524600903846C7
:1043A0000399FFF7BDFEDDF81090681E85B2002D61
:1043B000EBD100BF00BF00BFFBF76CFF029000BF56
:1043C00000BF0B480078401E0949087000BF00BFBD
:1043D0000298FBF763FF00BF00BF00BF04F400407A
:1043E00008B9FDF787FE00210F98018000BFC0E7E4
:1043F000601300202413002000210AE001EB410299
:10440000054B03EB820000220281026042604A1CDD
:10441000D1B24029F2D37047D440002010B50446F1
:1044200094F83700FFF712FF94F837000549097830
:10443000884203D1204600F027F802E0204600F031
:1044400003F810BD4613002010B590F8373003EB89
:1044500043030C4C04EB83010B893BB901230B8113
:104460000023C36003610860486009E00B895B1C9E
:104470000B810B68C360002303610A681061086048
:1044800010BD0000D440002010B590F8373003EB89
:1044900043030B4C04EB83010B893BB901230B81D4
:1044A0000023C36003610860486008E00B895B1C5F
:1044B0000B810023C3604A680261D060486010BD70
:1044C000D440002010B501460C8924B1012C03D042
:1044D000022C0CD101E000BF14E008684A680261B8
:1044E0000024C4601461D0600A6048600AE0086873
:1044F0004A68C36800241C61C4600261D0600B601C
:10450000486000BF00BF10BD2DE9F041054695F899
:10451000370000EB4000124901EB80042F69EE6880
:1045200087B946B9002020812060606095F8370087
:10453000FFF79EFE0EE02089401E208100203061A2
:10454000266007E02089401E2081FE600EB967606A
:1045500000E0376100202861E860BDE8F0810000DC
:10456000D440002010B5002400BFFBF793FE0446A2
:1045700000BF00200D4908700D480E49086008462C
:104580000068D0F89000401C0968C1F890000A4803
:104590000068401C084908604FF0805007490860D7
:1045A00000BF2046FBF77AFE00BF10BD4713002076
:1045B00004400020BC1300208C13002004ED00E018
:1045C00010B504480078012803D1FCF7F5F9024939
:1045D000086010BD601300205413002010B50A4875
:1045E000007880B9FCF7E8F908490968441A0848D6
:1045F0000068A04201D20648046006480068A04254
:1046000001D20448046010BD601300205413002040
:10461000581300205C13002070B5054600262E4874
:104620000078012800D070BD00BF00BFFBF732FE4C
:10463000064600BF00BF2C683CB900BF00BF304633
:10464000FBF72CFE00BF00BFEDE72448844207D1F2
:1046500000BF00BF3046FBF721FE00BF00BFE2E70E
:10466000A06D10B1A06D401EA065A06D38B100BF57
:1046700000BF3046FBF712FE00BF00BFD3E728891A
:10468000022807DA00BF00BF3046FBF707FE00BF75
:1046900000BFC8E712480078002807DD00BF00BF50
:1046A0003046FBF7FBFD00BF00BFBCE72846FFF725
:1046B00009FF2C68606D18B90A480068A06501E020
:1046C000606DA06500BF00BF3046FBF7E7FD00BF8F
:1046D00000BF00BFA7E7000068130020403F002094
:1046E00060130020641300200021034A1160034A74
:1046F00011800180704700006C13002070130020AF
:104700002DE9FF5F0446884691461D460020019032
:1047100000BF00BFFBF7BEFD019000BF00BF04F16A
:104720000807388900284FD10420012804D0022826
:1047300014D0042834D123E0206AFF280DD100BF13
:1047400000BF0198FBF7AAFD00BF00BF46F6C550A9
:104750002880002004B0BDE8F09F22E04FF6FF71F2
:10476000206A88420BD100BF00BF0198FBF796FD7D
:1047700000BF00BF46F6C55028800020EAE710E0E1
:10478000206A401C58B900BF00BF0198FBF786FDA6
:1047900000BF00BF46F6C55028800020DAE700E0E1
:1047A00000BF00BF206A401C2062D4F820A0C4F8DB
:1047B000249000BF00BF0198FBF770FD00BF00BF51
:1047C000002028805046C5E700BF25480078401CDF
:1047D0002349087000BF00BF0198FBF75FFD00BFD1
:1047E00000BF00BF08F4007008B13E8900E0012658
:1047F000D7F800B011E0DBF808000290DBF8040005
:10480000039000231A46CDF8009020460299FFF746
:1048100087FCDDF80CB0701E86B2002EEBD1D4F808
:1048200020A000BF00BF00BFFBF734FD019000BF18
:1048300000BF0B480078401E0949087000BF00BF48
:104840000198FBF72BFD00BF00BF00BF08F400403C
:1048500008B9FDF74FFC0020288050467AE7000099
:104860006013002086B00020009000BF06E0C3491E
:104870000968480001AA0021FEF752FBC0480078F1
:104880000128F4D101A8FDF773FD0027BD48006899
:10489000BA490968884205D9BA480068B749096821
:1048A000B0FBF1F727B9B74800680A21B0FBF1F770
:1048B00062E1FCF781F8804600BF00BFFBF7EAFC2D
:1048C000009000BF00BFB0480068B04908600020F9
:1048D000AD49086000BF00BF0098FBF7DFFC00BFD8
:1048E00000BFAB480068A9490968884248D9A84870
:1048F0000068A849884205D242F210700390012056
:10490000029023E0A2480068A349884205D24FF4F0
:104910007A7003900A20029018E09D4800689F4931
:10492000884203D26420039002900FE09848006808
:104930009B49884205D20A2003904FF47A70029076
:1049400004E00120039042F2107002909048016848
:104950000298B1FBF0FA8D49039809684843B0FB0F
:10496000FAF042F21071081A8E4908808E480088C9
:104970000988884208DA8B4800888B49088003E060
:1049800042F2107087490880FDF706FE002500BF3F
:1049900000BFFBF77FFC009000BF00BF83480468A6
:1049A00000BF00BF0098FBF779FC00BF00BF5AE0D2
:1049B00000BF00BF00BFFBF76DFC009000BF00BF51
:1049C0007B480078401C7A49087000BF00BF0098FF
:1049D000FBF764FC00BF00BF00BF54F89C0F606091
:1049E000002044F89C0900BF00BF00BFFBF752FC49
:1049F000009000BF00BF6E480078401E6C490870F0
:104A000008460078A0B96B480088002809DD00BF7F
:104A100000BF0098FBF742FC00BF00BFFFF7A2FDFC
:104A20000DE000BF00BF0098FBF738FC00BF06E0B8
:104A300000BF00BF0098FBF731FC00BF00BF00BF04
:104A4000D4F8A000054400BF00BFFBF723FC009092
:104A500000BF00BFD4F8BC4000BF00BF0098FBF708
:104A60001DFC00BF00BF002CA2D145B349488542C0
:104A700005D242F2107005904FF0010B1BE0464842
:104A8000854205D24FF47A7005904FF00A0B12E080
:104A90004248854203D26420059083460BE040489B
:104AA000854204D20A2005904FF47A7B03E001206E
:104AB000059042F2107BB5FBFBF0049003E0002070
:104AC00005900120049000BF00BFFBF7E3FB0090BE
:104AD00000BF00BF3548046800BF00BF0098FBF767
:104AE000DDFB00BF00BF2BE0D4F8A00005994843D0
:104AF0000499B0FBF1F086B242F21070864200D900
:104B00000646A4F88C60B4F88E00B04201DAA4F82E
:104B10008E6001AB04F1AC02111D2046FEF7C2F815
:104B200000BF00BFFBF7B6FB009000BF00BFD4F88A
:104B3000BC4000BF00BF0098FBF7B0FB00BF00BF48
:104B4000002CD1D11C480078012805D100201A4939
:104B5000087001A8FDF70CFCFBF72EFFA0EB08097D
:104B600016480068484502D21448C0F8009001AACF
:104B700000213846FEF7D4F99BE60000747C00085B
:104B8000841300208C7C0008781300208013002000
:104B90007C130020801A060000093D00005A6202C2
:104BA0000084D71774130020761300209013002080
:104BB00060130020241300207213002088130020AB
:104BC00010B58AB0044600201F4908601F490860DC
:104BD0001F4908601F4908701F4908701F48006876
:104BE00020B946F62B6020800AB010BD1C48006832
:104BF0001C490968884203D246F62C602080F3E7FE
:104C0000194800783F2803D346F62A602080EBE756
:104C1000032000210591CDE90704069108461049BB
:104C20000968124A12680D4B1B68CDE90132CDE9C3
:104C300003100D48007800230D4A0EA10090124881
:104C4000FDF7B4FC00BFCFE77813002080130020ED
:104C50007C1300208413002072130020787C00084D
:104C6000807C0008887C0008707C00087C7C000840
:104C70006548000875432F4F532D49494920537407
:104C80006174205461736B00D443002038B504462E
:104C90000D4685B16B4602222946204600F09EFD56
:104CA000BDF8000018B9032084F8360006E00220A1
:104CB00084F8360002E0022084F836002046FFF730
:104CC00023FC38BD0021C0F8B8100949096819B99A
:104CD0000021C0F8BC1007E005490968C0F8BC1005
:104CE00003490968C1F8B80001490860704700002D
:104CF00090130020D0F8B820D0F8BC104AB90D4B62
:104D0000196011B10023C1F8B8300023C0F8BC30DD
:104D10000FE029B90023C2F8BC30C0F8B83008E071
:104D2000C2F8BC10C1F8B8200023C0F8BC30C0F8ED
:104D3000B8307047901300200021044A1160044AE3
:104D40001180044A11600180704700009013002018
:104D5000941300208C13002070B5044600202060BE
:104D6000A0606060E06020616061A061E06129A0F6
:104D7000206200206062A062E0622064E065A4F826
:104D80006000002104F16400FFF704F8002044F8FB
:104D9000740F6060E060A0822061743C002506E032
:104DA000002104F17C0040F82510681CC5B2002DDC
:104DB000F6D000203434206120676067606084F89A
:104DC0005600E067A06720814FF00040606100203E
:104DD000A061E06120626062A4F85800A4F85A0063
:104DE000E0652066FBF7E8FD064666660020A066E3
:104DF000C4F8800020706070A0704020E070002037
:104E0000C4F88400C4F8880004A0C4F88C00343CC2
:104E100070BD00003F5461736B0000002000000073
:104E20002DE9FC4704460F4690469946DDE90A65A0
:104E30004FF0000A00BF00BF00BFFBF72BFA82460D
:104E400000BF00BF76480078401C7549087000BF5D
:104E500000BF5046FBF722FA00BF00BF00BF0CB9ED
:104E6000704804680020288094F8360008287DD215
:104E7000DFE800F004053E3F0607404100BF00BFE9
:104E800000BF4B464246394604F16400CDE9006557
:104E9000FEF788FF00BF00BF00BFFBF7FBF98246AB
:104EA00000BF00BF5E480078401E5D49087008469C
:104EB0000078A0B95C480088002809DD00BF00BF69
:104EC0005046FBF7EBF900BF00BFFFF74BFB0DE0CF
:104ED00000BF00BF5046FBF7E1F900BF06E000BF8E
:104EE00000BF5046FBF7DAF900BF00BF00BF93E0F8
:104EF00000BF00BF00BF94F83400022821D1434610
:104F00003A46214600200096FFF70AF900BF00BF8D
:104F100000BFFBF7BFF9824600BF00BF40480078E2
:104F2000401E3F49087000BF00BF5046FBF7B6F96E
:104F300000BF00BF00BF09F4004090BBFDF7DAF8E6
:104F400038E04B464246394604F16400CDE900653D
:104F5000FEF728FF00BF00BF00BFFBF79BF98246AA
:104F600000BF00BF2E480078401E00E023E02C491F
:104F7000087008460078A8B92B480088002809DD89
:104F800000BF00BF5046FBF789F900BF00BFFFF725
:104F9000E9FA0EE000BF00BF5046FBF77FF900BF03
:104FA00007E007E000BF00BF5046FBF777F900BFFE
:104FB00000BF00BF30E000BF00BF00BFFBF76AF9D1
:104FC000824600BF00BF16480078401E1449087092
:104FD00008460078A0B914480088002809DD00BF01
:104FE00000BF5046FBF75AF900BF00BFFFF7BAFAFF
:104FF0000DE000BF00BF5046FBF750F900BF06E0D0
:1050000000BF00BF5046FBF749F900BF00BF00BF1B
:1050100046F62D60288000BF00BFBDE8FC87000079
:1050200060130020B81300202413002010B504469C
:10503000204600F0B1FC94F8360000F0040010B9EE
:105040002046FFF7EBF910BD70B504460D4600266B
:1050500000BF00BFFBF71EF9064600BF00BF0020DF
:10506000288094F8360008287BD2DFE800F0040599
:1050700006071243556700BF00BF00BF00BF00BF57
:105080003046FBF70BF900BF00BF47F253102880F2
:1050900072E000BF3B480078401C3A49087000BFEE
:1050A00000BF3046FBF7FAF800BF00BF00BF14F89E
:1050B0008A0F401E207014F88A0928B9002084F84D
:1050C00036002046FFF7B2FF00BF00BF00BFFBF76E
:1050D000E1F8064600BF00BF2A480078401E294973
:1050E000087000BF00BF3046FBF7D8F800BF00BF14
:1050F00000BF41E014F88A0F401E207014F88A099E
:1051000010B9012084F8360000BF00BF3046FBF71D
:10511000C5F800BF00BF2FE014F88A0F401E2070B2
:1051200014F88A0910B9022084F8360000BF00BFC5
:105130003046FBF7B3F800BF00BF1DE014F88A0F3C
:10514000401E207014F88A0910B9032084F8360034
:1051500000BF00BF3046FBF7A1F800BF00BF0BE067
:10516000FFE700BF00BF3046FBF798F800BF00BF65
:1051700046F62D60288070BD00BFFCF7BBFF00BF66
:10518000F9E700006013002008B504480068FDF747
:1051900073FC69460020FDF743FB08BDB8130020EF
:1051A0002DE9F8430446884617461D464FF000098E
:1051B00000BF00BF00BFFBF76DF8814600BF00BF16
:1051C000FE480078401CFD49087000BF00BF4846FB
:1051D000FBF764F800BF00BF00BF0CB9F8480468D3
:1051E00027640020288094F83600082871D2DFE870
:1051F00000F00405EBEC0607EDEE00BF00BF00BFBA
:105200000420012804D0022839D004286FD170E08E
:10521000606CFF2832D100BF00BF00BFFBF73AF837
:10522000814600BF00BFE5480078401EE349087092
:1052300008460078A0B9E3480088002809DD00BFCF
:1052400000BF4846FBF72AF800BF00BFFFF78AF906
:105250000DE000BF00BF4846FBF720F800BF06E0A6
:1052600000BF00BF4846FBF719F800BF00BF00BFF2
:1052700046F6C55028800020BDE8F88371E04FF65F
:10528000FF71606C884233D100BF00BF00BFFBF7E5
:1052900001F8814600BF00BFC8480078401EC749DA
:1052A000087008460078A8B9C6480088002809DDBB
:1052B00000BF00BF4846FAF7F1FF00BF00BFFFF78D
:1052C00051F90EE000BF00BF4846FAF7E7FF00BF04
:1052D00007E08DE100BF00BF4846FAF7DFFF00BFDF
:1052E00000BF00BF46F6C55028800020C4E737E065
:1052F00037E0606C401C88BB00BF00BF00BFFAF7FE
:10530000C9FF814600BF00BFAC480078401EAB49D2
:10531000087008460078A0B9AA480088002809DD6E
:1053200000BF00BF4846FAF7B9FF00BF00BFFFF754
:1053300019F90DE000BF00BF4846FAF7AFFF00BF04
:1053400006E000BF00BF4846FAF7A8FF00BF00BF55
:1053500000BF46F6C550288000208DE7FFE700E03B
:1053600000BF00BF606C401C6064666C00BF00BF83
:1053700000BFFAF78FFF814600BF00BF8F4800785B
:10538000401E8E49087008460078A0B98D480088F4
:10539000002809DD00BF00BF4846FAF77FFF00BFC5
:1053A00000BFFFF7DFF80DE000BF00BF4846FAF787
:1053B00075FF00BF06E000BF00BF4846FAF76EFF6A
:1053C00000BF00BF00BF45E100BF00BF00BF94F8B1
:1053D0003400072823D100231A4621461846009797
:1053E000FEF79EFE666C00BF00BF00BFFAF752FFDB
:1053F000814600BF00BF71480078401E6F490870A9
:1054000000BF00BF4846FAF749FF00BF00BF00BF1A
:1054100008F40040002801D1FCF76CFEE7E004200E
:10542000012804D0022838D004286ED16EE0606CC8
:10543000FF2831D100BF00BF00BFFAF72BFF814624
:1054400000BF00BF5D480078401E5C4908700846F8
:105450000078A0B95B480088002809DD00BF00BFC4
:105460004846FAF71BFF00BF00BFFFF77BF80DE0CF
:1054700000BF00BF4846FAF711FF00BF06E000BFBB
:1054800000BF4846FAF70AFF00BF00BF00BF46F65C
:10549000C55028800020EFE670E04FF6FF71606C89
:1054A000884231D100BF00BF00BFFAF7F3FE81464A
:1054B00000BF00BF41480078401E404908700846C0
:1054C0000078A0B93F480088002809DD00BF00BF70
:1054D0004846FAF7E3FE00BF00BFFFF743F80DE0D0
:1054E00000BF00BF4846FAF7D9FE00BF06E000BF84
:1054F00000BF4846FAF7D2FE00BF00BF00BF46F625
:10550000C55028800020B7E638E036E0606C401CCB
:1055100088BB00BF00BF00BFFAF7BCFE814600BFDA
:1055200000BF26480078401E2449087008460078CD
:10553000A0B924480088002809DD00BF00BF484604
:10554000FAF7ACFE00BF00BFFFF70CF80DE000BF9C
:1055500000BF4846FAF7A2FE00BF06E000BF00BF4A
:105560004846FAF79BFE00BF00BF00BF46F6C55095
:105570002880002080E6FFE700E000BF00BF606CED
:10558000401C6064666C00BF00BF00BFFAF782FE7B
:10559000814600BF00BF09480078401E07490870D7
:1055A00008460078D8B907480088002810DD00BFF9
:1055B00000BF4846FAF772FE00BF05E06013002006
:1055C000B81300202413002000BFFEF7CBFF0DE02E
:1055D00000BF00BF4846FAF761FE00BF06E000BF0B
:1055E00000BF4846FAF75AFE00BF00BF00BF31E0D7
:1055F00000BF00BF00BFFAF74DFE814600BF00BFED
:1056000016480078401E1549087008460078A0B971
:1056100013480088002809DD00BF00BF4846FAF79C
:105620003DFE00BF00BFFEF79DFF0DE000BF00BFC5
:105630004846FAF733FE00BF06E000BF00BF484609
:10564000FAF72CFE00BF00BF00BF46F62D60288091
:10565000002600BF00BF30460EE6000060130020A9
:105660002413002070B504460D46002600BF00BF7D
:10567000FAF710FE064600BF00BF0CB94B4804689D
:105680004A48006884420ED14948007800280ADD63
:1056900000BF00BF3046FAF701FE00BF00BF46F66C
:1056A0006350288070BD0020288094F836000828B8
:1056B0006CD2DFE800F004313F4D5B5C5D5E00BF03
:1056C0003B480078401C3A49087000BF00BF304694
:1056D000FAF7E4FD00BF00BF00BF042084F83600E5
:1056E000012084F88A002046FEF70EFF00BF00BFAD
:1056F00000BFFAF7CFFD064600BF00BF2C48007878
:10570000401E2B49087000BF00BF3046FAF7C6FDA7
:1057100000BF00BF00BF44E0052084F83600012030
:1057200084F88A0000BF00BF3046FAF7B7FD00BF1B
:1057300000BF36E0062084F83600012084F88A0095
:1057400000BF00BF3046FAF7A9FD00BF00BF28E048
:10575000072084F83600012084F88A0000BF00BFCB
:105760003046FAF79BFD00BF00BF1AE000BF00BF44
:1057700000BF94F88A00401C84F88A0000BF00BF74
:105780003046FAF78BFD00BF00BF0AE000BF00BF44
:105790003046FAF783FD00BF00BF46F62D60288033
:1057A00080E700BFFCF7A6FC00BF7BE7B813002032
:1057B00060130020002108E0064A02EBC10000222D
:1057C00002608280C2804A1C91B2034A12889142D0
:1057D000F2DB7047303C0020A47C00082DE9F04F3C
:1057E0000C4616461D46042E1ED1DFF8A091D9F8AE
:1057F0000090A4EB0909A9F1010313F5803F0DD92D
:105800004FF00009C0F84C90C0F85090C0F81C90C0
:1058100047F27E29A5F80090BDE8F08FC46403F13B
:105820000109C0F850903FE084B3082E25D1D0F88C
:10583000489009EB0407DFF85491D9F80090A7EBE2
:105840000909A9F10103A34201D2C76406E0DFF808
:105850003C91D9F80090A144C0F84C90DFF82CA1FD
:10586000D0F84C90DAF800A0A9EB0A09C0F85090E3
:10587000D0F84C90C0F8489016E0DFF81091D9F8B5
:105880000090A144C0F84C9004650DE0FFE74FF094
:105890000009C0F84C90C0F85090C0F81C9047F236
:1058A0007E29A5F80090B7E7DFF8E4A0BAF800A0D9
:1058B000D0F84C90B9FBFAFB0AFB1B991FFA89F848
:1058C000DFF8D09009EBC802B2F80490B9F1000FEC
:1058D0000BD14FF00009C0F81490C0F81890106078
:1058E0004FF00109A2F804903EE0116834E0DFF8BF
:1058F0009CA0D1F84C90DAF800A0A9EB0A09C1F8F5
:105900005090D0F85090D1F850A0D1450ED9D1F890
:105910001490B9F1000F01D049691DE04FF0000962
:10592000C0F8149081614861002115E0D1F8189009
:10593000B9F1000F07D14FF00009C0F8189041618C
:105940008861106007E0D1F818C0C0F818C0416144
:10595000CCF81400886100210029C8D1B2F8049065
:1059600009F10109A2F80490B2F80690B2F804A077
:10597000D14503DAB2F80490A2F80690C2614FF064
:105980000009A5F8009000BF46E70000981300202A
:10599000A47C0008303C002010B5C269BAB10024D4
:1059A00004651468844205D14169116039B100244D
:1059B0008C6104E0816943694B6103B19961002402
:1059C00044618461C461C4649488641E948010BD81
:1059D000002006E0054A02EBC0010022CA80421CFA
:1059E00090B2034A12889042F4DB7047303C0020AA
:1059F000A47C00082DE9F05F4FF0000B00BF00BF52
:105A000000BFFAF747FC834600BF00BF714800782B
:105A1000401C7049087000BF00BF5846FAF73EFCB2
:105A200000BF00BF00BFFAF7C7FF05466A4800681D
:105A3000401C694908600846006868490988B0FB4D
:105A4000F1F201FB12001FFA80FA654800EBCA0868
:105A5000D8F80040002782E0002C7FD0D4F81490C2
:105A600094F83600082875D2DFE800F00408051B1A
:105A7000063D075000BF00BF00BF6CE05649E06C18
:105A80000968401A20655449E06C0968884206D1CB
:105A9000002084F836002046FFF7C8FA00E001270E
:105AA00059E04D49E06C0968401A20654A49E06CAC
:105AB0000968884215D10020E065A4F86000FAF773
:105AC0007BFF20642046FEF7F2FA2046FFF7AEFA8D
:105AD00000203434A07003206070002004F83409E2
